:030000000225AA2C
:0C25AA00787FE4F6D8FD7581070225F16A
:100F6300610001AA00FFFFFFFFFFFF0015851620A8
:100F7300528C34012820010381202078EAEBF59577
:100F8300595490271E505400000001010101010132
:100F9300010101010101010101012F19E0581100B3
:100FA3001850A0182200E0001500001E00000000E9
:100FB300000000000000000000000000000000002E
:100FC300000000000000000000000000000000001E
:100FD300000000FC00456C65634C6162204C434497
:100FE3000A200100020310402309070767030C00CE
:100FF3000000001E000000000000000000000000D0
:1010030000000000000000000000000000000000DD
:1010130000000000000000000000000000000000CD
:1010230000000000000000000000000000000000BD
:1010330000000000000000000000000000000000AD
:10104300000000000000000000000000000000009D
:10105300000000000000000000000000000000008D
:041063000000000089
:0B1A8F009002ADEBF0A3EAF0A3E9F039
:101A9A0090019DE0FEA3E0FF90019CE02FFF9001E2
:101AAA009BE03EFE9001A0E02FFF90019FE03E9058
:101ABA0002B0F0A3EFF09001A6E0FF9001A5E02F9D
:101ACA00FFE433FE9001A7E07C002FFFEC3E90027A
:101ADA00B2F0A3EFF0E47B0AFAF9F8900193E0FC84
:101AEA00A3E0FDA3E0FEA3E0FF12027B9002ADE0BB
:101AFA00FBA3E0FAA3E0F9EF12013FE47B0AFAF94B
:101B0A00F8900193E0FCA3E0FDA3E0FEA3E0FF123E
:101B1A00027BE4FB7A01F9F812027B9002ADE0FB4A
:101B2A00A3E0FAA3E0F9900001EF120151900199A4
:101B3A00E0FEA3E09000021201519002B1E0900091
:101B4A0003120151EEC4F8540FC868FFAD079002A2
:101B5A00B0E02D9000041201519001A4E09000051C
:101B6A001201519002B3E09000061201519001A3B4
:101B7A00E0C4F8540FC868FFAC079002B2E02C909A
:101B8A00000712015190019CE09000081201519047
:101B9A00019EE09000091201519001A5E0540FC482
:101BAA0054F0FFA3E0540F2F90000A120151900144
:101BBA009DE0C4F8540FC868FFAC0790019BE07E13
:101BCA00007806C333CE33CED8F92CFF9001A5E0B6
:101BDA00C4540F25E025E02FFFA3E0C4540F2F9033
:101BEA00000B12015190019AE090000C12015190E1
:101BFA0001A4E090000D1201519001A3E02D900084
:101C0A000E1201519001A8E025E04418FFA3E02537
:0A1C1A00E025E04F90001102015197
:0B2636009002ADEBF0A3EAF0A3E9F086
:10264100E4FFFEEEC3947F7480948050189002AD35
:10265100E0FBA3E0FAA3E0F98E8275830012011278
:102661002FFF0E80DEC3E49FFF9002ADE0FBA3E0ED
:10267100FAA3E0F990007FEF120151E4FFFEEEC3EF
:10268100947F74809480501EEE2480FDE433FC908E
:1026910002ADE0FBA3E0FAA3E0F98D828C83120185
:1026A100122FFF0E80D8C3E49FFF9002ADE0FBA381
:0C26B100E0FAA3E0F99000FFEF020151F5
:102B70000001000000000000000100010000000151
:102B80000001000200000002000100030000000339
:102B900000020007000000070002000B0000000B0D
:102BA0000002000F0000000F0004001F0000001FC3
:1010670044031F000000004403190000000044036C
:05107700230000000051
:101DAB000520000521000501000511000529003261
:101DBB00000039B9F1128739B2E005F839B31010C8
:101DCB00282803FF0000000015B48039B50D0B392E
:101DDB00B6707039B82622F06339BA338105F90E23
:101DEB000E2000000000000000442500910A0000B6
:101DFB00014F0100003715BC4739BF0210008004AA
:101E0B0039C073735050A00012730039C1250032D2
:101E1B003277E47777CCCCFFFF111100003239C752
:101E2B0010000A0000000000EDC500A539C81040E5
:101E3B001E0315CC0739E000131A2C343F4F3F0615
:101E4B000C0D14151313111900131A2C343F4F3F9B
:101E5B00060C0D14151313111939E1111191000012
:101E6B00000039E307070B0B0B0B00000000FF040E
:101E7B00C01039E9C8100A100E80381231234F8672
:101E8B0080384708000C04000000000C0400000020
:101E9B008F446028BA0288888888888F457138BA41
:101EAB0013888888888800000001008038000000B3
:101EBB0000000039EA9618000000B4010B41010242
:101ECB0000F8431758BA318888888888F842064842
:101EDB00BA20888888888823000000D7000000007B
:101EEB0000000000000000078B0000408081408054
:0A1EFB00810039EFFFFF01153648A2
:07215B00E493FF7BFF7D020E
:102162009002ADEFF0A3EDF0A3EBF0A3EAF0A3E948
:01217200F07C
:10217300E4A3F07D407F1C7EC2122CF99002AEE0F6
:102183006402704F7D0C7F187EC2122CF97D047F90
:10219300197EC2122CF99002ADE0FD7F347EC2128B
:1021A3002CF99002AFE0FBA3E0FAA3E0F91200F9E7
:1021B300FD7F347EC2122CF99002AFE0FBA3E0FA5C
:1021C300A3E0F9900001120112FD7F347EC2122CAC
:1021D300F980727D0E7F187EC2122CF99002AEE058
:1021E3002406FD7F197EC2122CF99002ADE0FD7F1B
:1021F300347EC2122CF99002AEE0FD7F347EC2120F
:102203002CF9E4FD7F347EC2122CF9E49002B2F083
:102213009002AEE0FF9002B2E0C39F50289002AF5D
:10222300E0FBA3E0FAA3E0F91200F9FD7F347EC2DC
:10223300122CF99002B0E475F0011201DA9002B2A7
:10224300E004F080CB7F017E00122D7EE4FD7F1839
:052253007EC2022CF91F
:101C2400901DBDE493FF7BFF7A1D79BE7D041221D4
:101C340062901DC2E493FF7BFF7A1D79C37D041279
:101C44002162901DC7E493FF7BFF7A1D79C87D0B49
:101C5400122162901DD37A1D79D412215B901DD676
:101C6400E493FF7BFF7A1D79D77D03122162901DD7
:101C7400DAE493FF7BFF7A1D79DB7D031221629006
:101C84001DDEE493FF7BFF7A1D79DF7D051221625F
:101C9400901DE4E493FF7BFF7A1D79E57D1C1221FE
:101CA40062901E017A1E790212215B901E04E49355
:101CB400FF7BFF7A1E79057D06122162901E0BE4DC
:101CC40093FF7BFF7A1E790C7D0A122162901E1607
:101CD400E493FF7BFF7A1E79177D12122162901E16
:101CE40029E493FF7BFF7A1E792A7D0D12216290ED
:101CF4001E37E493FF7BFF7A1E79387D051221623B
:101D0400901E3DE493FF7BFF7A1E793E7D021221F3
:101D140062901E40E493FF7BFF7A1E79417D23127B
:101D24002162901E64E493FF7BFF7A1E79657D082F
:101D3400122162901E6DE493FF7BFF7A1E796E7D03
:101D44000F122162901E7DE493FF7BFF7A1E797E41
:101D54007D40122162901EBEE493FF7BFF7A1E79C0
:101D6400BF7D3E122162901EFDE493FF7BFF7A1E2D
:101D740079FE7D04122162901DB4E493FF7BFF7A07
:101D84001D79B57D021221627F967E00122D7E9010
:101D94001DB7E493FF7BFF7A1D79B87D021221629F
:071DA4007F327E00022D7E5C
:10289800FFFF000000000000000000000000000032
:1028A8000000000000000000000000000000000020
:1028B800FFFF000000000000000000000000000012
:1028C8000000000000000000000000000000000000
:1028D800FFFF0000000000000000000000000000F2
:1028E80000000000000000000000000000000000E0
:0D107C0046032F0100000000034103350072
:102CCE00122CF99001A6E0FD7F04122CF99001A7B9
:102CDE00E0FD0F122CF97F089001A5E0FD122CF9F2
:0B2CEE007D0F0F122CF90F122CF90FB4
:072CF9008F828E83EDF022B3
:102E0E007D017F347EA0122CF97F0A7E00122D7E6A
:042E1E007FB17EB84A
:072E22008F828E83E0FF2286
:042D7A007FC87E0090
:102D7E00EF1FAA0670011E4A6013E4FCFDC3ED941A
:0D2D8E00AFEC940050EA0DBD00010C80F088
:012D9B002215
:102A8D00900316E060097B017A0179E0121A8F7BC1
:102A9D00017A0179AA1226367D037F8E7EC0122C13
:102AAD00F9E4FBFA74AA2BF58274013AF583E0FD83
:102ABD007F907EC0122CF90BBB00010AE4B503E434
:0D2ACD00EAB401E07D027F8E7EC0022CF98C
:1026BD007D137F557E90122CF97D807F57122CF95A
:1026CD00E4FD0F122CF97D400F122CF97D030F1232
:1026DD002CF97DFF0F122CF97D987F5D122CF97D61
:1026ED00FF7F51122CF9122CF07D130F122CF97D56
:1026FD00FF0F122CF97D800F122CF9E4FD0F122C17
:10270D00F97D400F122CF97D030F122CF97D7F0FEF
:10271D00122CF97DFF0F122CF97D980F122CF97DDB
:10272D00FF122CF0122CF00F122CF97D207F2E7E33
:04273D00B0022CF9C1
:10294F007D077F8E7EB0122CF97D770F122CF97DCB
:10295F00F17F147ED1122CF97D1F7F567E90122CA1
:10296F00F97D987F62122CF97F147ED1122E22EFFF
:10297F004408FD7F14122CF9122E22EF54FBFD7F19
:10298F0014122CF91F122E22EF54FEFD7F13022C6E
:01299F00F93E
:102DBA00EF7F147ED16008122E22EF54F78006129C
:0C2DCA002E22EF4408FD7F14122CF92289
:102DD600EF7F147ED16008122E22EF440480061283
:0C2DE6002E22EF54FBFD7F14122CF9226A
:102DF200EF7F137ED16008122E22EF44018006126B
:0C2E02002E22EF54FEFD7F13122CF9224B
:1027BE00E4FDFF7EB0122CF97D327F8C122CF97D58
:1027CE00770F122CF990031DE0FB7A00640170055F
:1027DE007D070F800AEB4A70097D777F8E7EB012DF
:1027EE002CF97D777F8F7EB0122CF97D027F137EC0
:1027FE00D1122CF97D1B0F122CF97DC20F122CF960
:10280E007D207F10122CF97DFF7F29122CF57D7F04
:10281E007F067E90122CF97F017E00122D7E7DFFA9
:07282E007F067E90022CF9E9
:102C65009002AD12033D00000000122E0EAD077F4D
:102C7500127ED2122CF97FB27EB8122E22AD077FBA
:102C8500147ED2122CF97FB37EB8122E22AD077FA7
:062C9500157ED2022CF9AD
:102D00007C007D357F087EB8122CF97D017F347EF2
:102D1000A0122CF97F0A7E00122D7E7FB07EB812A1
:0C2D20002E22EF540160037F01227F008F
:012D2C002284
:102511007F8B7ED2122E22EF7D00FC7F8C7ED21229
:102521002E22ED2FFDE43CFCED25E0FDEC33FC7F9C
:1025310096122E22EF9002AFF0A3E4F07F977ED2A5
:10254100122E229002B0E02FF09002AFE03400F0A2
:102551007F0C7EC2122E22EF9002ADF0A3E4F07F39
:102561000D7EC2122E229002AEE02FF09002ADE05D
:102571003400F07F06122E22EF7B00FA7F077EC225
:10258100122E22EB2FFBE43AFAAE04AF059002AD16
:10259100E0B5060FA3E0B5070AA3E06A7003A3E064
:0825A1006B60037F01227F0043
:0125A900220F
:100991009002AD12033D000000009002B112033D30
:1009A100000000009002B512033D0000000090021B
:1009B100B912033D00000000122E0EE4FCFDFE9072
:1009C10002AD1203317FB27EB8122E22E4FCFDFE8D
:1009D100C004C005C006C0079002ADE0FCA3E0FD65
:1009E100A3E0FEA3E0FF780812031ED003D002D0DB
:1009F10001D000EF2BFFEE3AFEED39FDEC38FC9013
:100A010002AD1203317FB37EB8122E22E4FCFDFE4B
:100A1100C004C005C006C0079002ADE0FCA3E0FD24
:100A2100A3E0FEA3E0FF780812031ED003D002D09A
:100A310001D000EF2BFFEE3AFEED39FDEC38FC90D2
:100A410002AD1203317F127ED2122E22E4FCFDFE92
:100A51009002B11203317F147ED2122E22E4FCFDEA
:100A6100FEC004C005C006C0079002B1E0FCA3E0CF
:100A7100FDA3E0FEA3E0FF780812031ED003D0021D
:100A8100D001D000EF2BFFEE3AFEED39FDEC38FC42
:100A91009002B11203317F157ED2122E22E4FCFDA9
:100AA100FEC004C005C006C0079002B1E0FCA3E08F
:100AB100FDA3E0FEA3E0FF780812031ED003D002DD
:100AC100D001D000EF2BFFEE3AFEED39FDEC38FC02
:100AD1009002B11203317D21122E10E4FCFDFE9033
:100AE10002B51203317FB27EB8122E22E4FCFDFE64
:100AF100C004C005C006C0079002B5E0FCA3E0FD3C
:100B0100A3E0FEA3E0FF780812031ED003D002D0B9
:100B110001D000EF2BFFEE3AFEED39FDEC38FC90F1
:100B210002B51203317FB37EB8122E22E4FCFDFE22
:100B3100C004C005C006C0079002B5E0FCA3E0FDFB
:100B4100A3E0FEA3E0FF780812031ED003D002D079
:100B510001D000EF2BFFEE3AFEED39FDEC38FC90B1
:100B610002B51203317D1A122E10E4FCFDFE900233
:100B7100B91203317FB27EB8122E22E4FCFDFEC011
:100B810004C005C006C0079002B9E0FCA3E0FDA3C4
:100B9100E0FEA3E0FF780812031ED003D002D001CB
:100BA100D000EF2BFFEE3AFEED39FDEC38FC900260
:100BB100B91203317FB37EB8122E22E4FCFDFEC0D0
:100BC10004C005C006C0079002B9E0FCA3E0FDA384
:100BD100E0FEA3E0FF780812031ED003D002D0018B
:100BE100D000EF2BFFEE3AFEED39FDEC38FC900220
:100BF100B91203319002B1E0FCA3E0FDA3E0FEA332
:100C0100E0FF9002ADE0F8A3E0F9A3E0FAA3E0FB76
:100C1100D312030D40369002B1E0F8A3E0F9A3E04E
:100C2100FAA3E0FB9002ADE0FCA3E0FDA3E0FEA38C
:100C3100E09BFFEE9AFEED99FDEC98FCE47B207AB7
:100C41004EF9F8C312030D50387F01229002ADE036
:100C5100F8A3E0F9A3E0FAA3E0FBA3E0FCA3E0FD25
:100C6100A3E0FEA3E0C39BFFEE9AFEED99FDEC9895
:100C7100FCE47B207A4EF9F8C312030D50037F0187
:030C8100227F00CF
:010C8400224D
:102D56007D017F007ED8122CF91D7F5A122CF97D39
:102D660007122CF4E4FD0F122CF97D070F122CF933
:042D76000F022CF923
:1006940074FF9002B0F0A3F0A3F0A3F0A3F0A3F0D2
:1006A40078B67C027D01FB7A2879987E007F20123F
:1006B40000D378D67C027D017BFF7A2879B87E004E
:1006C4007F201200D378F67C027D017BFF7A2879A3
:1006D400D87E007F201200D37D017F007ED8122CAB
:1006E400F97B0FEBD394077480948050030208D9EC
:1006F400EB25E025E02470F582E4342BF5837401C6
:1007040093C454F0FD7F5A7ED8122CF9EB25E025D2
:10071400E02472F582E4342BF583740193FD7F5C4D
:10072400122CF9EB25E025E02470F582E4342BF556
:1007340083E474019375F011A4FD0F122CF9EB25D9
:10074400E025E02472F582E4342BF583740193FDF3
:100754000F122CF9EB25E025E02472F582E4342B0A
:10076400F583740193FD0F122CF97D077F207EC061
:10077400122CF97D01122CF97F647E00122D7E7FEC
:10078400247EC0122E22EF547FFEEB25E024B6F522
:1007940082E43402F583EEF0A3E4F07F257EC012F8
:1007A4002E22EB25E024B6F582E43402F583E48FAF
:1007B400F01201DA7F26122E22EF547FFEEB25E0A1
:1007C40024D6F582E43402F583EEF0A3E4F07F2727
:1007D4007EC0122E22EB25E024D6F582E43402F505
:1007E40083E48FF01201DA7F28122E22EF547FFE69
:1007F400EB25E024F6F582E43402F583EEF0A3E47D
:10080400F07F297EC0122E22EB25E024F6F582E447
:100814003402F583E48FF01201DAEB25E024B6F517
:1008240082E43402F583E0FEA3E0FF9002B0E0FC32
:10083400A3E0FDD3EF9DEE9C501DEB25E024B6F51F
:1008440082E43402F583E0FFA3E09002B0CFF0A38A
:10085400EFF09002ADEBF0EB25E024D6F582E43422
:1008640002F583E0FEA3E0FF9002B2E0FCA3E0FD0A
:10087400D3EF9DEE9C501DEB25E024D6F582E434A5
:1008840002F583E0FFA3E09002B2CFF0A3EFF09073
:1008940002AEEBF0EB25E024F6F582E43402F583B6
:1008A400E0FEA3E0FF9002B4E0FCA3E0FDD3EF9DE3
:1008B400EE9C501DEB25E024F6F582E43402F5832A
:1008C400E0FFA3E09002B4CFF0A3EFF09002AFEB0F
:1008D400F01B0206E79002ADE025E025E02470F568
:1008E40082E4342BF583E474019375F011A4FD7F45
:1008F4005A7ED8122CF99002ADE025E025E024724E
:10090400F582E4342BF583740193FD0F122CF990D6
:1009140002ADE025E025E02472F582E4342BF58372
:10092400740193FD0F122CF99002AFE025E025E04D
:100934002470F582E4342BF583740193C454F0FFDE
:100944009002AEE025E025E02470F582E4342BF536
:10095400837401932FFD7F5D122CF99002AEE02584
:10096400E025E02472F582E4342BF583740193FDD1
:100974000F122CF99002AFE025E025E02472F582F5
:0D098400E4342BF583740193FD0F022CF970
:102E29007F027EA0122E22EF542064207002FF221E
:022E39007F0117
:012E3B002274
:10036E007F8B7ED2122E22EF9002B9F0A3E4F07FA3
:10037E008C7ED2122E229002BAE02FF09002B9E0BB
:10038E003400F0A3E025E0F09002B9E033F0122D36
:10039E002D7FFA7E00122D7E7F8B7ED2122E22EFC3
:1003AE007D00FC7F8C7ED2122E22ED2FFDE43CFCD4
:1003BE00ED25E0FDEC33FCE49002C3F0C39002BAED
:1003CE00E09D9002B9E09C503F9002C3E004F0E043
:1003DE00D3940574809480502F122D2D122D7A7F78
:1003EE008B7ED2122E22EF7D00FC7F8C122E22ED00
:1003FE002FFDE43CFCED25E0FDEC33FC9002B9E072
:10040E00B504C6A3E0B505C17D0B122E10E4FCFDAC
:10041E00FE9002AD1203317FB27EB8122E22E4FCA2
:10042E00FDFEC004C005C006C0079002ADE0FCA3EF
:10043E00E0FDA3E0FEA3E0FF780812031ED003D078
:10044E0002D001D000EF2BFFEE3AFEED39FDEC3875
:10045E00FC9002AD1203317FB37EB8122E22E4FC63
:10046E00FDFEC004C005C006C0079002ADE0FCA3AF
:10047E00E0FDA3E0FEA3E0FF780812031ED003D038
:10048E0002D001D000EF2BFFEE3AFEED39FDEC3835
:10049E00FC9002AD1203317D017F347EA0122CF947
:1004AE007F897ED2122E22EF9002B1F0A3E4F07F6C
:1004BE008A7ED2122E229002B2E02FF09002B1E08C
:1004CE003400F0A3E025E0F09002B1E033F07F8B32
:1004DE00122E22EF9002B3F0A3E4F07F8C7ED212A4
:1004EE002E229002B4E02FF09002B3E03400F0A37D
:1004FE00E025E0F09002B3E033F07F9C122E22EF65
:10050E009002B5F0A3E4F07F9D7ED2122E229002CF
:10051E00B6E02FF09002B5E03400F0A3E025E0F055
:10052E009002B5E033F07F94122E22EF9002B7F0D6
:10053E00A3E4F07F957ED2122E229002B8E02FF027
:10054E009002B7E03400F0A3E025E0F09002B7E0AF
:10055E0033F07F98122E22EF7B00FA7F997ED21213
:10056E002E22EB2FFBE43AFAEB25E0FBEA33FA7F7F
:10057E009E122E22EF9002BBF0A3E4F07F9F7ED25C
:10058E00122E229002BCE02FF09002BBE03400F05D
:10059E007F96122E22EF9002BDF0A3E4F07F977E9D
:1005AE00D2122E229002BEE02FF09002BDE0340057
:1005BE00F07F88122E229002BFEFF07F86122E223D
:1005CE009002C0EFF07F87122E229002C1EFF07FD3
:1005DE00A0122E22EF5402C3139002C2F07FA0127B
:1005EE002E22EF5401F99002ADE0FCA3E0FDA3E052
:1005FE00FEA3E0FF9001931203319002B1E0FFA33E
:10060E00E0900197CFF0A3EFF09002B3E0FFA3E0EC
:10061E00900199CFF0A3EFF09002B5E0FFA3E09028
:10062E00019BCFF0A3EFF09002B7E0FFA3E09001A3
:10063E009DCFF0A3EFF0AE02AF03A3EEF0A3EFF069
:10064E009002BBE0FFA3E09001A1CFF0A3EFF090EA
:10065E0002BDE0FFA3E09001A3CFF0A3EFF0900264
:10066E00BFE09001A5F09002C0E09001A6F09002CC
:10067E00C1E09001A7F09002C2E09001A8F0AF0196
:05068E00A3EFF07F0165
:010693002244
:10274100E4FCFBFAFD7F507EA0122CF97D020F12F2
:102751002CF90D0F122CF9E4FD0F122CF97DF10F5C
:10276100122CF97F50122E22EF4402FD7F50122CC1
:10277100F97F0C122E22EF540260097F0C122E22D7
:10278100EF5401FA7F507EA0122E22EF54FDFD7FFF
:1027910050122CF97F02122E22EF5480FC7F717EA1
:1027A100C0122E22EF5460FB7D047F507EA0122CBC
:0D27B100F9E4FD7F55122CF97F57022CF939
:1028F8009001A8E0640160237F057EC0122E22EFBC
:102908007F0530E508122E22EF54DF80087EC012C2
:102918002E22EF4420FD7F05122CF99001A9E064D6
:102928000160237F057EC0122E22EF7F0530E40868
:10293800122E22EF54EF80087EC0122E22EF441090
:07294800FD7F05122CF922AE
:102BB0007D437F357EA0122CF97D210F122CF97DEB
:102BC000040F122CF97D320F122CF97D100F122CEC
:102BD000F97D430F122CF97D210F122CF97D040F82
:0F2BE000122CF97D320F122CF97D100F022CF9F7
:10235400900318E0FB7A006401700D7DFF7F437EDB
:10236400A0122CF9E4FD8026EB64024A7026900347
:102374001DE06401700D7DF57F437EA0122CF9E40D
:10238400FD800B7DE47F437EA0122CF97D800F7EBF
:10239400C2122CF97D347F557EB0122CF97D9F7FBB
:1023A4005D122CF97F5F122CF97D8F7F61122CF95D
:1023B4007D9F7F63122CF97F65122CF97D347F7722
:1023C400122CF97D9F7F7F122CF97F81122CF97DCD
:1023D4008F7F83122CF97D9F7F85122CF97F8712C2
:1023E4002CF990031DE0704C7D347F44122CF97D50
:1023F4009F7F4C122CF97F4E122CF97D8F7F501247
:102404002CF97D9F7F52122CF97F54122CF97D34C4
:102414007F66122CF97D9F7F6E122CF97F70122C2F
:10242400F97D8F7F72122CF97D9F7F74122CF97FB6
:0524340076122CF922D4
:100C8500E49002B1F0A3F0A3F07D0B7F347EA012B7
:100C95002CF97F14122E19E4FCFDFE9002AD12030F
:100CA500317FB27EB8122E22E4FCFDFEC004C005E1
:100CB500C006C0079002ADE0FCA3E0FDA3E0FEA3E3
:100CC500E0FF780812031ED003D002D001D000EF58
:100CD5002BFFEE3AFEED39FDEC38FC9002AD120328
:100CE500317FB37EB8122E22E4FCFDFEC004C005A0
:100CF500C006C0079002ADE0FCA3E0FDA3E0FEA3A3
:100D0500E0FF780812031ED003D002D001D000EF17
:100D15002BFFEE3AFEED39FDEC38FC9002AD1203E7
:100D2500317D017F347EA0122CF9E47BE87A03F94A
:100D3500F89002ADE0FCA3E0FDA3E0FEA3E0FF1206
:100D4500027B90031EE014601104702E7C007D036D
:100D5500120173900000E0FD800EEF25E0FFEE33F9
:100D6500FE900000E0FD7C00120185900318E0FD77
:100D75007C001201859002B1EFF09002B1E0240FE2
:100D8500F0E0C394197480948050037419F07D3891
:100D95007F3A7EB0122CF97D010F122CF99002B129
:100DA500E0FFC394BB74809480501BC3EF945074D0
:100DB50080948040117D187F3E7EB0122CF9900200
:100DC500B27401F080799002B1E0FFC39450748051
:100DD5009480501BC3EF94287480948040117D0843
:100DE5007F3E7EB0122CF99002B27402F0805090D2
:100DF50002B1E0FFC3942874809480501BC3EF9424
:100E0500147480948040117D287F3E7EB0122CF9A9
:100E15009002B27404F080279002B1E0FFC39414ED
:100E2500748094805019C3EF940A74809480400FA5
:100E35007D387F3E7EB0122CF99002B27408F07DA9
:100E4500107F3F7EB0122CF59002B2E0FF9002B108
:100E5500E08FF0A4AEF07803C333CE33CED8F9FFDC
:100E65007C007D1B120185AD077F417EB0122CF9F8
:100E75007DDF7F0F7E90122CF97F447EB0122E22EB
:100E8500EF54BFFD7F44122CF97F017E00122D7EA9
:100E95007DFF7F0F7E90122CF97F447EB0122E22AB
:100EA500EF4440FD7F44122CF97D1A122E10E4FC0C
:100EB500FDFE9003231203317FB27EB8122E22E489
:100EC500FCFDFEC004C005C006C007900323E0FC7E
:100ED500A3E0FDA3E0FEA3E0FF780812031ED00304
:100EE500D002D001D000EF2BFFEE3AFEED39FDEC3C
:100EF50038FC9003231203317FB37EB8122E22E40F
:100F0500FCFDFEC004C005C006C007900323E0FC3D
:100F1500A3E0FDA3E0FEA3E0FF780812031ED003C3
:100F2500D002D001D000EF2BFFEE3AFEED39FDECFB
:100F350038FC9003231203317D017F347EA0122CEF
:100F4500F9E47F04FE1DFC900323E0F8A3E0F9A378
:0D0F5500E0FAA3E0FB1201F09002B3EFF010
:010F6200226C
:101F0500E47BE87A03F9F8900323E0FCA3E0FDA362
:101F1500E0FEA3E0FF12027BAC07EC75F01484240D
:101F250004FBEC75F012842406FAEC75F0068404C3
:101F35009002ADF0EC75F00A8404A3F0EC75F00C9A
:101F4500842408A3F0EC75F01984A3F0EC75F00572
:101F550084F97F447EB0122E22EF4480FD7F441227
:101F65002CF97D807EA0122CF97F49122CF9E4FD15
:101F7500FF7EC2122CF57F56122CF97D0F7F2012A1
:101F85002CF97DFF7F25122CF97F2C122CF990025C
:101F9500AFE0FD7F22122CF99002B0E0FD0F122C6C
:101FA500F9AD010F122CF9AD027F2F122CF9AD03FB
:101FB5000F122CF97DAA0F122CF9AD027F52122CAB
:101FC500F9AD030F122CF97DAA0F122CF990031D00
:101FD500E07028AD037F26122CF9AD020F122CF903
:101FE5007DAA7F2E122CF9AD027F32122CF9AD039A
:101FF5000F122CF97DAA7F51122CF9EC75F00A8489
:102005002408FD7F287EC2122CF9EB2AFF9002AD31
:10201500E02FFD7F2A122CF97D107F1B122CF97DF4
:0B202500507F1D122CF97F2D022CF9BA
:10122800900199E0FD7F0C7EC2122CF990019AE0A2
:10123800FD0F122CF99001A7E0FF9001A6E02FFD09
:101248007F35122CF99001A3E0FD7F06122CF9904E
:1012580001A4E0FD0F122CF97D557F0F122CF99097
:101268000318E064016003021323900329E024F8C3
:101278006046240860030214C2900199E0FD7F389B
:101288007EC2122CF990019AE0FD0F122CCE900329
:101298001EE0FB7A00700B7D267F17122CF97D3E2D
:1012A8008074EB64014A60030214C27D247F177EB8
:1012B800C2122CF97D1C805E900199E0FD7F387E7A
:1012C800C2122CF990019AE0FD0F122CF99001A797
:1012D800E0FF9001A6E02F14FD7F04122CF97D0198
:1012E8000F122CF91D7F08122CF90D122CF0900307
:1012F8001EE0FB7A00700B7D267F17122CF97D24E7
:101308008014EB64014A60030214C27D247F177EB7
:10131800C2122CF97D1E7F120214BF900199E0FEC3
:10132800A3E07802CEC313CE13D8F9EEFD7F107E6A
:10133800C2122CF9900199E0FEA3E07802CEC31303
:10134800CE13D8F9FD7F117EC2122CF9900329E043
:1013580024F87003021401240860030214C29001E7
:1013680099E0C313FEEEFD7F387EC2122CF990017E
:1013780099E0C313A3E013FD0F7EC2122CCE900197
:1013880099E0C313FEEEFD7F367EC2122CF9900160
:1013980099E0C313A3E013FD0F7EC2122CF990014C
:1013A800A6E0FD7F57122CF99001A7E0FD0F122C43
:1013B800F90F122CE690031EE0FB7A0070187DA648
:1013C8007F17122CF97F4C122CF97D3E7F12122CBC
:1013D800F97F5D0214BFEB64014A60030214C27D09
:1013E800A47F177EC2122CF97F4C122CF97D1C7F2A
:1013F80012122CF97F5D0214BF900199E0C313FE0D
:10140800EEFD7F387EC2122CF9900199E0C313A338
:10141800E013FD0F7EC2122CF99001A7E0FF9001A6
:10142800A6E02F14FD7F04122CF97D010F122CF970
:101438001D7F08122CF90D122CF0900199E0C313AE
:10144800FEEEFD7F367EC2122CF9900199E0C3139F
:10145800A3E013FD0F7EC2122CF99001A7E0FF90C4
:1014680001A6E02F14FD7F57122CF97D010F122CD5
:10147800F91D0F122CF90D122CF090031EE0FB7AC7
:101488000070177DA67F17122CF97F4C122CF97D5E
:10149800247F12122CF97F5D801DEB64014A701ABB
:1014A8007DA47F177EC2122CF97F4C122CF97D1E69
:0B14B8007F12122CF97F5D122CF9222C
:10225800E4FD7F1C7EC2122CF97D807F14122CF9BC
:10226800900000E014700302230E146068146034B8
:10227800146003022341900329E0FF900001E04F1E
:10228800FD7F017EC2122CF9900329E0FF90000126
:10229800E04FFD7F56122CF97D017F02122CF97D4B
:1022A800A002233D900001E04430FF900329E04F55
:1022B800FD7F017EC2122CF9900001E04430FF90AE
:1022C8000329E04FFD7F56122CF97D017F02122C65
:1022D800F97D908060900001E04420FF900329E0A0
:1022E8004FFD7F017EC2122CF9900001E04420FFCF
:1022F800900329E04FFD7F56122CF97D027F0212D0
:102308002CF97D58802F900001E04410FF9003299C
:10231800E04FFD7F017EC2122CF9900001E04410CD
:10232800FF900329E04FFD7F56122CF97D037F02B1
:10233800122CF9E4FD0F122CF97F147E00122D7E69
:0C234800900002E0FD7F007EC2022CF934
:102A3F00E4FD7F277EB8122CF97DC07F007EB01297
:102A4F002CF9E4FD7F8C122CF9122CF07D7F7F0680
:102A5F007E90122CF97D387F3A7EB0122CF9E4FD6E
:102A6F007F017EC2122CF97F56122CF97DBE7F0A90
:0E2A7F007E90122CF9E4FD7F057EC0022CF93A
:072B2700900327E0FFE4FD2D
:102B2E00AC05EF6008E4FD7F8C7EB080317D107FB8
:102B3E008C7EB0122CF97F467EA0122E22EF44809E
:102B4E00FD7F46122CF9EC7F486008122E22EF44CE
:102B5E000480087EA0122E22EF54FBFD7F48122C1B
:022B6E00F9224A
:102C2C0090032FE0FD7F0C7ED2122CF9900330E044
:102C3C00FD0F122CF9900331E0FD0F122CF99003CB
:102C4C0032E0FD0F122CF9900333E0FD0F122CF93A
:092C5C00900334E0FD0F022CF995
:102E3C007D4F7F1F7EB0122CF97D2E7F2E022CF938
:1018F50090032D7401F0122B27E4FD7F067EC012A4
:101905002CF9122835122C2C122ADA122A8D122DB6
:1019150056122A3F1226BD122E3C7D017F347EA031
:10192500122CF97F2C7E01122D7E7D087F067EC04C
:10193500122CF97FF47E01122D7EE490032AF0909B
:10194500032AE07032122D00EF602690032DE0642B
:1019550001700E1226BD122ADA90032A7401F08056
:1019650016120991EF60028008122511EF600880B8
:101975000090032A7404F090032AE0640470329006
:10198500032DE07027122A3F7DFB7F077E90122CE6
:10199500F9122B277DFF7F077E90122CF990032DDE
:1019A5007401F0E4A3F0122E4C122E3CE490032AAD
:1019B500F090032AE064017056122030EF6009129E
:1019C50029A0122C9BEF70F1122C9BEF7041122D68
:1019D500561229F01214C3122439EF600612069428
:1019E5001229F07F147E00122D7E122C9BEF6008C9
:1019F50090032A7401F08006122E29EF70E5122B50
:101A0500EF122D2DE490032CF090032A7402F09030
:101A1500032AE06402701B7FFAFE122D7E12036E0C
:101A2500EF600FE490032DF090032BF090032A74E0
:101A350003F090032AE06403600302194490032D28
:101A4500F0122C65122BB0122354120C85121F05AF
:101A5500122B27122D7A900327E0FF7D01122B2EE2
:101A6500900335E0700504F0121C24122741121270
:101A7500281228F8122D7A1222581227BEE4900354
:0A1A85002AF090032E04F002194429
:10108900617000230000ACDA0230019000300020CA
:10109900005005250500030A180101000159B4048F
:1010A9006003200060004000A005250500030A1820
:1010B9000101000127E6028001E000300020005014
:1010C90007B70780030A2A010100024FCC05000374
:1010D900C00060004000A007B70780030A2A010189
:1010E90000011558025801B800300020005007B718
:1010F9000780030A2A010100022AB004B003700024
:1011090060004000A007B70780030A2A0101000018
:101119009EC001C0014000500010002005E805C82C
:1011290010040C010100013D800380028000A00031
:1011390020004005E805C810040C0101000127E65C
:1011490003C00320003000200050052305000306DA
:101159001A010100024FCC078006400060004000E0
:10116900A00523050003061A010100024A5E07FCD7
:101179000780003C0018002804C804B00C040801CA
:101189000100024A5E07FC0780003C0018002804A1
:10119900C804B00C040801010003AFE80794060075
:1011A90000C8000400C8081C08000E020C01010058
:1011B9000418D40AA00A00003000200050066E0668
:1011C900400306250101000103C802A802580019BD
:1011D900000F0028065E06400A050F0101000207FC
:1011E90090055004B00032001E0050065E06400A09
:1011F900050F010160200003078407840882088223
:1012090011261126118811881013101310151015A5
:0E12190009721016102610264300000407600C
:10172100E49002AAF0A3F0A3F090031604F0E49071
:101731000327F090031D04F07F8A7EB0122E227BD6
:1017410045EB20E2030218F454F0C4540F9002AAAE
:10175100F0FA75F017A42423F582E5F03400F5833F
:10176100E0FCA3E0FDA3E0FEA3E0FF9001931203E0
:101771003175F017EAA42427F582E5F03400F583EA
:10178100E0FFA3E0900197CFF0A3EFF09002AAE071
:10179100FF75F017A42429F582E5F03400F583E004
:1017A100FDA3E0900199CDF0A3EDF075F017EFA442
:1017B100242BF582E5F03400F583E0FFA3E09001EE
:1017C1009BCFF0A3EFF09002AAE0FF75F017A424DD
:1017D1002DF582E5F03400F583E0FDA3E090019D55
:1017E100CDF0A3EDF075F017EFA4242FF582E5F00D
:1017F1003400F583E0FFA3E090019FCFF0A3EFF069
:101801009002AAE0FF75F017A42431F582E5F034C7
:1018110000F583E0FDA3E09001A1CDF0A3EDF0750B
:10182100F017EFA42433F582E5F03400F583E0FFEF
:10183100A3E09001A3CFF0A3EFF09002AAE0FF751F
:10184100F017A42435F582E5F03400F583E090012A
:10185100A5F075F017EFA42436F582E5F03400F514
:1018610083E09001A6F09002AAE075F017A4243756
:10187100F582E5F03400F583E09001A7F075F017EB
:10188100EFA42438F582E5F03400F583E09001A857
:10189100F09002AAE075F017A42439F582E5F0343E
:1018A10000F583E09001A9F0EF25E02403F582E43F
:1018B1003400F583E0FCA3E0FD9002ABECF0A3ED76
:1018C100F09002ABE09001B5F0ED9001B4F0EB9037
:1018D100031830E1057402F080037401F0E4900311
:1018E10028F090031EF0900329F0EB30E00302187A
:0318F100F580FE81
:0118F40022D1
:102D9C00FFFF000000000000FFFF0000000000002B
:0E2DAC00FFFF000000000000FFFF000000001D
:102835007D997F627E90122CF97DF07F317EA0120A
:102845002CF97D207F2E7EB0122CF9E4FD7F297EA8
:10285500B0122CF97D487F307EB0122CF97D057FB2
:10286500327EB0122CF97D557F217EB8122CF97D70
:10287500407F3A7EB8122CF97D117F837ED2122CCF
:10288500F97D417F087EB8122CF97DF37F927EA0F9
:03289500022CF919
:102C9B00E47DFE7F037E90122CF97F057E00122DC2
:102CAB007E7DFF7F037E90122CF97F0A7E00122D12
:102CBB007E7FB07EB8122E22EF544070037F01222C
:022CCB007F0088
:012CCD0022E4
:102ADA007DBF7F927EB0122CF9E4FD7F217EB01279
:102AEA002CF97DC17F227EB0122CF97D097F287EC8
:102AFA00B0122CF97D2C7F257EB0122CF97D7F7FB8
:102B0A000F7E90122CF97F0A7E00122D7E7DFF7FA8
:0D2B1A000F7E90122CF97F0A7E00022D7EA6
:092E4C007DC07F217EB0022CF94B
:102030007D017F347EA0122CF97F0A7E00122D7E56
:102040007FB17EB8122E22E4FCFDFE90031F120326
:10205000317FB27EB8122E22E4FCFDFEC004C00522
:10206000C006C00790031FE0FCA3E0FDA3E0FEA3B1
:10207000E0FF780812031ED003D002D001D000EF99
:102080002BFFEE3AFEED39FDEC38FC90031F1203F6
:10209000317FB37EB8122E22E4FCFDFEC004C005E1
:1020A000C006C00790031FE0FCA3E0FDA3E0FEA371
:1020B000E0FF780812031ED003D002D001D000EF59
:1020C0002BFFEE3AFEED39FDEC38FC90031F1203B6
:1020D00031E47F207E4EFDFC90031FE0F8A3E0F981
:1020E000A3E0FAA3E0FBC312030D40177F687EA7AD
:1020F0007D047C0090031FE0F8A3A3A3E0D31203A8
:102100000D40037F00227F887E017D037C009003C9
:102110001FE0F8A3E0F9A3E0FAA3E0FBC312030D6C
:1021200040047D4780227F007E777D017C00900304
:102130001FE0F8A3E0F9A3E0FAA3E0FBC312030D4C
:1021400050047D7780027D677F2A7EB0122CF97D56
:0B215000427F2B7EB0122CF97F012291
:1029A0007D7F7F0F7E90122CF97F0A7E00122D7E94
:1029B0007DFF7F0F7E90122CF97F0A7E00122D7E04
:1029C0007D147F147EB8122CF97F017E00122D7EBB
:1029D0007D947F147EB8122CF97F017E00122D7E2B
:1029E0007DB47F147EB8122CF97F0A7E00022D7E02
:102BEF007DFB7F107E90122CF97DFB7F077E90126C
:102BFF002CF97DDF7F087E90122CF97F0A7E001260
:102C0F002D7E7DFF7F087E90122CF97DFF7F077E42
:0D2C1F0090122CF97DFF7F107E90022CF9A1
:102D2D007DFE7F0B7E90122CF97F0A7E00122D7E88
:102D3D007D3F7F0A7E90122CF97F0A7E00122D7E38
:092D4D007DBF7F0A7E90022CF983
:1029F000E4FD7F1F7EB0122CF9E4FD7F207EB01233
:102A00002CF97DBF7F0F7E90122CF97DFE7F0D7E0D
:102A100090122CF97DEF7F037E90122CF97F0A7EB5
:102A200000122D7E7DFF7F0D7E90122CF97DFF7FA1
:0F2A30000F7E90122CF97DFF7F037E90022CF910
:1014C30074FF9002ADF0A3F0A3F0A3F0A3F0A3F098
:1014D30078B37C027D01FB7A2D799C7E007F081214
:1014E30000D378BB7C027D017BFF7A2D79A47E003B
:1014F3007F081200D378C37C027D017BFF7A2D79AC
:10150300AC7E007F081200D3E49002CBF0A3F0A3DB
:10151300F0A3F07FA07E867D01FC90031FE0F8A37B
:10152300E0F9A3E0FAA3E0FBC312030D40030217A3
:10153300177D0F7F277EB8122CF9E49002CBF09031
:1015430002CBE0FFC394047480948040030216ED41
:10155300EFC454F0FD7F297EB8122CF99002CBE042
:10156300C454F0FD7F2A7EB8122CF99002CBE0C45C
:1015730054F0FD7F2B7EB8122CF97D077F207EC0AF
:10158300122CF97D017F207EC0122CF97F327E0060
:10159300122D7E7F247EC0122E22EF547FFE9002F6
:1015A300CBE025E024B3F582E43402F583EEF0A327
:1015B300E4F07F257EC0122E229002CBE025E024AA
:1015C300B3F582E43402F583E48FF01201DA7F2667
:1015D3007EC0122E22EF547FFE9002CBE025E02442
:1015E300BBF582E43402F583EEF0A3E4F07F277EBB
:1015F300C0122E229002CBE025E024BBF582E43416
:1016030002F583E48FF01201DA7F287EC0122E22C6
:10161300EF547FFE9002CBE025E024C3F582E4344F
:1016230002F583EEF0A3E4F07F297EC0122E229010
:1016330002CBE0FD25E024C3F582E43402F583E424
:101643008FF01201DAED25E024B3F582E43402F5DC
:1016530083E0FEA3E0FF9002ADE0FCA3E0FDD3EF47
:101663009DEE9C50129002CBE0FD9002ADEEF0A3F4
:10167300EFF09002CCEDF09002CBE025E024BBF537
:1016830082E43402F583E0FEA3E0FF9002AFE0FCC6
:10169300A3E0FDD3EF9DEE9C50129002CBE0FD90B2
:1016A30002AFEEF0A3EFF09002CDEDF09002CBE0AD
:1016B30025E024C3F582E43402F583E0FEA3E0FFD2
:1016C3009002B1E0FCA3E0FDD3EF9DEE9C5012909D
:1016D30002CBE0FD9002B1EEF0A3EFF09002CEED6D
:1016E300F09002CBE004F00215429002CCE0C45427
:1016F300F0FD7F297EB8122CF99002CDE0C454F09E
:10170300FD7F2A7EB8122CF99002CEE0C454F0FD7E
:0D1713007F2B8004E4FD7F277EB8122CF9A7
:0117200022A6
:1024390078AD7C027D017BFF7A2D79B47E007F0621
:102449001200D37D077F207EC0122CF97D017F20E9
:102459007EC0122CF97F647E00122D7E7F247EC0FF
:10246900122E22EF547F7F00FEC006C0077F257E13
:10247900C0122E22EFFDD0E02DFED0E034009002F4
:10248900ADF0A3CEF07F267EC0122E22EF547F7FBF
:1024990000FEC006C0077F277EC0122E22EFFDD0A6
:1024A900E02DFED0E034009002AFF0A3CEF07F28FB
:1024B9007EC0122E22EF547F7F00FEC006C0077F28
:1024C900297EC0122E22EFFDD0E02DFED0E034008F
:1024D9009002B1F0A3CEF0D39002AEE09400900246
:1024E900ADE09400501C9002B0E094009002AFE07F
:1024F9009400500E9002B2E094009002B1E0940072
:0725090040037F01227F0067
:0125100022A8
:1025B600021721E493A3F8E493A34003F68001F203
:1025C60008DFF48029E493A3F85407240CC8C33326
:1025D600C4540F4420C8834004F456800146F6DFF5
:1025E600E4800B0102040810204080900F63E47E13
:1025F600019360BCA3FF543F30E509541FFEE493EA
:10260600A360010ECF54C025E060A840B8E493A3B0
:10261600FAE493A3F8E493A3C8C582C8CAC583CADB
:10262600F0A3C8C582C8CAC583CADFE9DEE780BE93
:0112270000C6
:10000300E709F608DFFA8046E709F208DFFA803EDF
:1000130088828C83E709F0A3DFFA8032E309F608CC
:10002300DFFA8078E309F208DFFA807088828C8334
:10003300E309F0A3DFFA806489828A83E0A3F608E8
:10004300DFFA805889828A83E0A3F208DFFA804CC2
:1000530080D280FA80C680D4806980F28033801099
:1000630080A680EA809A80A880DA80E280CA803302
:1000730089828A83ECFAE493A3C8C582C8CCC5837A
:10008300CCF0A3C8C582C8CCC583CCDFE9DEE7804A
:100093000D89828A83E493A3F608DFF9ECFAA9F0C9
:1000A300EDFB2289828A83ECFAE0A3C8C582C8CC1F
:1000B300C583CCF0A3C8C582C8CCC583CCDFEADE38
:1000C300E880DB89828A83E493A3F208DFF980CC9A
:1000D30088F0EF60010E4E60C388F0ED2402B40493
:1000E3000050B9F582EB2402B4040050AF2323453A
:0600F3008223900053730C
:1000F900BB010689828A83E0225002E722BBFE0205
:09010900E32289828A83E4932237
:10011200BB010CE58229F582E5833AF583E02250A2
:1001220006E92582F8E622BBFE06E92582F8E222EC
:0D013200E58229F582E5833AF583E4932206
:10013F00BB010689828A83F0225002F722BBFE019F
:02014F00F32299
:10015100F8BB010DE58229F582E5833AF583E8F0E4
:10016100225006E92582C8F622BBFE05E92582C890
:02017100F22278
:10017300EF8DF0A4A8F0CF8CF0A428CE8DF0A42EA0
:02018300FE225A
:10018500BC000BBE0029EF8DF084FFADF022E4CC5E
:10019500F875F008EF2FFFEE33FEEC33FCEE9DEC27
:1001A500984005FCEE9DFE0FD5F0E9E4CEFD22ED6D
:1001B500F8F5F0EE8420D21CFEADF075F008EF2FB7
:1001C500FFED33FD4007985006D5F0F222C398FDA8
:0501D5000FD5F0EA2245
:1001DA00C5F0F8A3E028F0C5F0F8E58215827002B0
:0601EA001583E038F0224D
:1001F000E88FF0A4CC8BF0A42CFCE98EF0A42CFCAE
:100200008AF0EDA42CFCEA8EF0A4CDA8F08BF0A42B
:100210002DCC3825F0FDE98FF0A42CCD35F0FCEB8A
:100220008EF0A4FEA9F0EB8FF0A4CFC5F02ECD394F
:0F023000FEE43CFCEAA42DCE35F0FDE43CFC22BC
:10023F0075F008758200EF2FFFEE33FECD33CDCC76
:10024F0033CCC58233C5829BED9AEC99E5829840F9
:10025F000CF582EE9BFEED9AFDEC99FC0FD5F0D6D6
:10026F00E4CEFBE4CDFAE4CCF9A88222B800C1B900
:10027F000059BA002DEC8BF084CFCECDFCE5F0CB3E
:10028F00F97818EF2FFFEE33FEED33FDEC33FCEB77
:10029F0033FB10D703994004EB99FB0FD8E5E4F932
:1002AF00FA227818EF2FFFEE33FEED33FDEC33FC1F
:1002BF00C933C910D7059BE99A4007EC9BFCE99A13
:1002CF00F90FD8E0E4C9FAE4CCFB2275F010EF2F58
:1002DF00FFEE33FEED33FDCC33CCC833C810D70758
:1002EF009BEC9AE899400AED9BFDEC9AFCE899F893
:0E02FF000FD5F0DAE4CDFBE4CCFAE4C8F92226
:10030D00EB9FF5F0EA9E42F0E99D42F0E89C45F046
:01031D0022BD
:10031E00E8600FEFC333FFEE33FEED33FDEC33FC3D
:03032E00D8F122E1
:0C033100ECF0A3EDF0A3EEF0A3EFF0223F
:10033D00A8828583F0D083D0821203541203541205
:10034D000354120354E473E493A3C583C5F0C5832A
:10035D00C8C582C8F0A3C583C5F0C583C8C582C80A
:01036D00226D
:00000001FF
