:03000000022324B4
:0C232400787FE4F6D8FD75810702236B7A
:100FB800610001AA00FFFFFFFFFFFF001585162053
:100FC800528C34012820010381202078EAEBF59522
:100FD800595490271E5054000000010101010101DD
:100FE800010101010101010101012F19E05811005E
:100FF8001850A0182200E0001500001E0000000094
:1010080000000000000000000000000000000000D8
:1010180000000000000000000000000000000000C8
:10102800000000FC00456C65634C6162204C434441
:101038000A200100020310402309070767030C0078
:101048000000001E0000000000000000000000007A
:101058000000000000000000000000000000000088
:101068000000000000000000000000000000000078
:101078000000000000000000000000000000000068
:101088000000000000000000000000000000000058
:101098000000000000000000000000000000000048
:1010A8000000000000000000000000000000000038
:0410B8000000000034
:0B1AEA009002ADEBF0A3EAF0A3E9F0DE
:101AF50090019DE0FEA3E0FF90019CE02FFF900187
:101B05009BE03EFE9001A0E02FFF90019FE03E90FC
:101B150002B0F0A3EFF09001A6E0FF9001A5E02F41
:101B2500FFE433FE9001A7E07C002FFFEC3E90021E
:101B3500B2F0A3EFF0E47B0AFAF9F8900193E0FC28
:101B4500A3E0FDA3E0FEA3E0FF12027B9002ADE05F
:101B5500FBA3E0FAA3E0F9EF12013FE47B0AFAF9EF
:101B6500F8900193E0FCA3E0FDA3E0FEA3E0FF12E3
:101B7500027BE4FB7A01F9F812027B9002ADE0FBEF
:101B8500A3E0FAA3E0F9900001EF12015190019949
:101B9500E0FEA3E09000021201519002B1E0900036
:101BA50003120151EEC4F8540FC868FFAD07900247
:101BB500B0E02D9000041201519001A4E0900005C1
:101BC5001201519002B3E09000061201519001A359
:101BD500E0C4F8540FC868FFAC079002B2E02C903F
:101BE500000712015190019CE090000812015190EC
:101BF500019EE09000091201519001A5E0540FC427
:101C050054F0FFA3E0540F2F90000A1201519001E8
:101C15009DE0C4F8540FC868FFAC0790019BE07EB7
:101C2500007806C333CE33CED8F92CFF9001A5E05A
:101C3500C4540F25E025E02FFFA3E0C4540F2F90D7
:101C4500000B12015190019AE090000C1201519085
:101C550001A4E090000D1201519001A3E02D900028
:101C65000E1201519001A8E025E04418FFA3E025DC
:0A1C7500E025E04F9000110201513C
:0B2439009002ADEBF0A3EAF0A3E9F085
:10244400E4FFFEEEC3947F7480948050189002AD34
:10245400E0FBA3E0FAA3E0F98E8275830012011277
:102464002FFF0E80DEC3E49FFF9002ADE0FBA3E0EC
:10247400FAA3E0F990007FEF120151E4FFFEEEC3EE
:10248400947F74809480501EEE2480FDE433FC908D
:1024940002ADE0FBA3E0FAA3E0F98D828C83120184
:1024A400122FFF0E80D8C3E49FFF9002ADE0FBA380
:0C24B400E0FAA3E0F99000FFEF020151F4
:102973000001000000000000000100010000000150
:102983000001000200000002000100030000000338
:1029930000020007000000070002000B0000000B0C
:1029A3000002000F0000000F0004001F0000001FC2
:1010BC0044031F0000000044031900000000440317
:0510CC002300000000FC
:102B9F00052000052100050100051100052900325F
:102BAF000000291000160500002910070705000076
:071ED500E493FF7BFF7D0297
:101EDC009002ADEFF0A3EDF0A3EBF0A3EAF0A3E9D1
:011EEC00F005
:101EED00E4A3F07D407F1C7EC2122AFC9002AEE07E
:101EFD006402704F7D0C7F187EC2122AFC7D047F18
:101F0D00197EC2122AFC9002ADE0FD7F347EC21212
:101F1D002AFC9002AFE0FBA3E0FAA3E0F91200F96E
:101F2D00FD7F347EC2122AFC9002AFE0FBA3E0FAE3
:101F3D00A3E0F9900001120112FD7F347EC2122A36
:101F4D00FC80727D0E7F187EC2122AFC9002AEE0DC
:101F5D002406FD7F197EC2122AFC9002ADE0FD7FA2
:101F6D00347EC2122AFC9002AEE0FD7F347EC21296
:101F7D002AFCE4FD7F347EC2122AFCE49002B2F00A
:101F8D009002AEE0FF9002B2E0C39F50289002AFE6
:101F9D00E0FBA3E0FAA3E0F91200F9FD7F347EC265
:101FAD00122AFC9002B0E475F0011201DA9002B22F
:101FBD00E004F080CB7F017E00122B81E4FD7F18C1
:051FCD007EC2022AFCA7
:1023B0007F647E00122B81902BB1E493FF7BFF7A28
:1023C0002B79B27D03121EDC7F027E00122B8190DE
:1023D0002BB57A2B79B6121ED57F027E00122B8187
:1023E000902BB8E493FF7BFF7A2B79B97D03121E03
:1023F000DC7F027E00122B81902BBC7A2B79BD12E0
:102400001ED57F027E00122B81902BA8E493FF7BC8
:10241000FF7A2B79A97D02121EDC7F967E00122B9B
:1024200081902BABE493FF7BFF7A2B79AC7D02127A
:092430001EDC7F327E00022B81CC
:10269B00FFFF000000000000000000000000000031
:1026AB00000000000000000000000000000000001F
:1026BB00FFFF000000000000000000000000000011
:1026CB0000000000000000000000000000000000FF
:1026DB00FFFF0000000000000000000000000000F1
:1026EB0000000000000000000000000000000000DF
:0D10D10046032F010000000003410335001D
:102AD100122AFC9001A6E0FD7F04122AFC9001A7B6
:102AE100E0FD0F122AFC7F089001A5E0FD122AFCEF
:0B2AF1007D0F0F122AFC0F122AFC0FB1
:072AFC008F828E83EDF022B2
:102C31007D017F347EA0122AFC7F0A7E00122B8147
:042C41007FB17EB829
:072C45008F828E83E0FF2265
:042B7D007FC87E008F
:102B8100EF1FAA0670011E4A6013E4FCFDC3ED9419
:0D2B9100AFEC940050EA0DBD00010C80F087
:012B9E002214
:10289000900316E060097B017A0179E0121AEA7B65
:1028A000017A0179AA1224397D037F8E7EC0122A13
:1028B000FCE4FBFA74AA2BF58274013AF583E0FD7F
:1028C0007F907EC0122AFC0BBB00010AE4B503E432
:0D28D000EAB401E07D027F8E7EC0022AFC8A
:1024C0007D137F557E90122AFC7D807F57122AFC57
:1024D000E4FD0F122AFC7D400F122AFC7D030F122F
:1024E0002AFC7DFF0F122AFC7D987F5D122AFC7D5D
:1024F000FF7F51122AFC122AF37D130F122AFC7D52
:10250000FF0F122AFC7D800F122AFCE4FD0F122A15
:10251000FC7D400F122AFC7D030F122AFC7D7F0FE9
:10252000122AFC7DFF0F122AFC7D980F122AFC7DD7
:10253000FF122AF3122AF30F122AFC7D207F2E7E2F
:04254000B0022AFCBF
:102752007D077F8E7EB0122AFC7D770F122AFC7DC8
:10276200F17F147ED1122AFC7D1F7F567E90122AA1
:10277200FC7D987F62122AFC7F147ED1122C45EFD9
:102782004408FD7F14122AFC122C45EF54FBFD7FF6
:1027920014122AFC1F122C45EF54FEFD7F13022A4D
:0127A200FC3A
:102BDD00EF7F147ED16008122C45EF54F78006125A
:0C2BED002C45EF4408FD7F14122AFC2246
:102BF900EF7F147ED16008122C45EF440480061241
:0C2C09002C45EF54FBFD7F14122AFC2226
:102C1500EF7F137ED16008122C45EF440180061228
:0C2C25002C45EF54FEFD7F13122AFC2208
:1025C100E4FDFF7EB0122AFC7D327F8C122AFC7D55
:1025D100770F122AFC90031DE0FB7A00640170055D
:1025E1007D070F800AEB4A70097D777F8E7EB012DE
:1025F1002AFC7D777F8F7EB0122AFC7D027F137EBD
:10260100D1122AFC7D1B0F122AFC7DC20F122AFC5B
:102611007D207F10122AFC7DFF7F29122AF87D7F01
:102621007F067E90122AFC7F017E00122B817DFFA6
:072631007F067E90022AFCE7
:102A68009002AD12033D00000000122C31AD077F2B
:102A7800127ED2122AFC7FB27EB8122C45AD077F97
:102A8800147ED2122AFC7FB37EB8122C45AD077F84
:062A9800157ED2022AFCAB
:102B03007C007D357F087EB8122AFC7D017F347EF0
:102B1300A0122AFC7F0A7E00122B817FB07EB8129E
:0C2B23002C45EF540160037F01227F006D
:012B2F002283
:10228B007F8B7ED2122C45EF7D00FC7F8C7ED21291
:10229B002C45ED2FFDE43CFCED25E0FDEC33FC7F04
:1022AB0096122C45EF9002AFF0A3E4F07F977ED20D
:1022BB00122C459002B0E02FF09002AFE03400F00A
:1022CB007F0C7EC2122C45EF9002ADF0A3E4F07FA1
:1022DB000D7EC2122C459002AEE02FF09002ADE0C5
:1022EB003400F07F06122C45EF7B00FA7F077EC28D
:1022FB00122C45EB2FFBE43AFAAE04AF059002AD7E
:10230B00E0B5060FA3E0B5070AA3E06A7003A3E0EC
:08231B006B60037F01227F00CB
:012323002297
:10036E009002AD12033D000000009002B112033D59
:10037E00000000009002B512033D00000000900244
:10038E00B912033D00000000122C31E4FCFDFE907A
:10039E0002AD1203317FB27EB8122C45E4FCFDFE95
:1003AE00C004C005C006C0079002ADE0FCA3E0FD8E
:1003BE00A3E0FEA3E0FF780812031ED003D002D004
:1003CE0001D000EF2BFFEE3AFEED39FDEC38FC903C
:1003DE0002AD1203317FB37EB8122C45E4FCFDFE54
:1003EE00C004C005C006C0079002ADE0FCA3E0FD4E
:1003FE00A3E0FEA3E0FF780812031ED003D002D0C4
:10040E0001D000EF2BFFEE3AFEED39FDEC38FC90FB
:10041E0002AD1203317F127ED2122C45E4FCFDFE9A
:10042E009002B11203317F147ED2122C45E4FCFDF2
:10043E00FEC004C005C006C0079002B1E0FCA3E0F8
:10044E00FDA3E0FEA3E0FF780812031ED003D00246
:10045E00D001D000EF2BFFEE3AFEED39FDEC38FC6B
:10046E009002B11203317F157ED2122C45E4FCFDB1
:10047E00FEC004C005C006C0079002B1E0FCA3E0B8
:10048E00FDA3E0FEA3E0FF780812031ED003D00206
:10049E00D001D000EF2BFFEE3AFEED39FDEC38FC2B
:1004AE009002B11203317D21122C33E4FCFDFE903B
:1004BE0002B51203317FB27EB8122C45E4FCFDFE6C
:1004CE00C004C005C006C0079002B5E0FCA3E0FD65
:1004DE00A3E0FEA3E0FF780812031ED003D002D0E3
:1004EE0001D000EF2BFFEE3AFEED39FDEC38FC901B
:1004FE0002B51203317FB37EB8122C45E4FCFDFE2B
:10050E00C004C005C006C0079002B5E0FCA3E0FD24
:10051E00A3E0FEA3E0FF780812031ED003D002D0A2
:10052E0001D000EF2BFFEE3AFEED39FDEC38FC90DA
:10053E0002B51203317D1A122C33E4FCFDFE90023B
:10054E00B91203317FB27EB8122C45E4FCFDFEC019
:10055E0004C005C006C0079002B9E0FCA3E0FDA3ED
:10056E00E0FEA3E0FF780812031ED003D002D001F4
:10057E00D000EF2BFFEE3AFEED39FDEC38FC900289
:10058E00B91203317FB37EB8122C45E4FCFDFEC0D8
:10059E0004C005C006C0079002B9E0FCA3E0FDA3AD
:1005AE00E0FEA3E0FF780812031ED003D002D001B4
:1005BE00D000EF2BFFEE3AFEED39FDEC38FC900249
:1005CE00B91203317FA07EF77D037C009002ADE06F
:1005DE00F8A3E0F9A3E0FAA3E0FBC312030D403643
:1005EE007FD07EFB7D017C009002B5E0F8A3E0F9A0
:1005FE00A3E0FAA3E0FB12030D401B7FB07EAD7D9E
:10060E00017C009002B9E0F8A3E0F9A3E0FAA3E0C0
:10061E00FB12030D50037F01229002B1E0FCA3E018
:10062E00FDA3E0FEA3E0FF9002ADE0F8A3E0F9A386
:10063E00E0FAA3E0FBD312030D40369002B1E0F8CE
:10064E00A3E0F9A3E0FAA3E0FB9002ADE0FCA3E087
:10065E00FDA3E0FEA3E09BFFEE9AFEED99FDEC9864
:10066E00FCE47B207A4EF9F8C312030D50387F015B
:10067E00229002ADE0F8A3E0F9A3E0FAA3E0FBA319
:10068E00E0FCA3E0FDA3E0FEA3E0C39BFFEE9AFE19
:10069E00ED99FDEC98FCE47B207A4EF9F8C3120339
:0806AE000D50037F01227F00C3
:0106B6002221
:102B59007D017F007ED8122AFC1D7F5A122AFC7D36
:102B690007122AF7E4FD0F122AFC7D070F122AFC2F
:042B79000F022AFC21
:1009DD0074FF9002B0F0A3F0A3F0A3F0A3F0A3F086
:1009ED0078B67C027D01FB7A26799B7E007F2012F2
:1009FD0000D378D67C027D017BFF7A2679BB7E0001
:100A0D007F201200D378F67C027D017BFF7A267958
:100A1D00DB7E007F201200D37D017F007ED8122A5D
:100A2D00FC7B0FEBD39407748094805003020C224F
:100A3D00EB25E025E02473F582E43429F583740178
:100A4D0093C454F0FD7F5A7ED8122AFCEB25E02585
:100A5D00E02475F582E43429F583740193FD7F5C00
:100A6D00122AFCEB25E025E02473F582E43429F508
:100A7D0083E474019375F011A4FD0F122AFCEB258C
:100A8D00E025E02475F582E43429F583740193FDA6
:100A9D000F122AFCEB25E025E02475F582E43429BC
:100AAD00F583740193FD0F122AFC7D077F207EC014
:100ABD00122AFC7D01122AFC7F647E00122B817F9D
:100ACD00247EC0122C45EF547FFEEB25E024B6F5B5
:100ADD0082E43402F583EEF0A3E4F07F257EC012AC
:100AED002C45EB25E024B6F582E43402F583E48F42
:100AFD00F01201DA7F26122C45EF547FFEEB25E034
:100B0D0024D6F582E43402F583EEF0A3E4F07F27DA
:100B1D007EC0122C45EB25E024D6F582E43402F597
:100B2D0083E48FF01201DA7F28122C45EF547FFEFB
:100B3D00EB25E024F6F582E43402F583EEF0A3E430
:100B4D00F07F297EC0122C45EB25E024F6F582E4DA
:100B5D003402F583E48FF01201DAEB25E024B6F5CB
:100B6D0082E43402F583E0FEA3E0FF9002B0E0FCE6
:100B7D00A3E0FDD3EF9DEE9C501DEB25E024B6F5D3
:100B8D0082E43402F583E0FFA3E09002B0CFF0A33E
:100B9D00EFF09002ADEBF0EB25E024D6F582E434D6
:100BAD0002F583E0FEA3E0FF9002B2E0FCA3E0FDBE
:100BBD00D3EF9DEE9C501DEB25E024D6F582E43459
:100BCD0002F583E0FFA3E09002B2CFF0A3EFF09027
:100BDD0002AEEBF0EB25E024F6F582E43402F5836A
:100BED00E0FEA3E0FF9002B4E0FCA3E0FDD3EF9D97
:100BFD00EE9C501DEB25E024F6F582E43402F583DE
:100C0D00E0FFA3E09002B4CFF0A3EFF09002AFEBC2
:100C1D00F01B020A309002ADE025E025E02473F5CB
:100C2D0082E43429F583E474019375F011A4FD7FFA
:100C3D005A7ED8122AFC9002ADE025E025E02475FD
:100C4D00F582E43429F583740193FD0F122AFC908B
:100C5D0002ADE025E025E02475F582E43429F58325
:100C6D00740193FD0F122AFC9002AFE025E025E000
:100C7D002473F582E43429F583740193C454F0FF91
:100C8D009002AEE025E025E02473F582E43429F5E9
:100C9D00837401932FFD7F5D122AFC9002AEE02537
:100CAD00E025E02475F582E43429F583740193FD84
:100CBD000F122AFC9002AFE025E025E02475F582A5
:0D0CCD00E43429F583740193FD0F022AFC25
:102C4C007F027EA0122C45EF542064207002FF22DC
:022C5C007F01F6
:012C5E002253
:1006B7007F8B7ED2122C45EF9002B9F0A3E4F07F36
:1006C7008C7ED2122C459002BAE02FF09002B9E04E
:1006D7003400F0A3E025E0F09002B9E033F0122BEC
:1006E700307FFA7E00122B817F8B7ED2122C45EF52
:1006F7007D00FC7F8C7ED2122C45ED2FFDE43CFC67
:10070700ED25E0FDEC33FCE49002C3F0C39002BAA0
:10071700E09D9002B9E09C503F9002C3E004F0E0F6
:10072700D3940574809480502F122B30122B7D7F29
:100737008B7ED2122C45EF7D00FC7F8C122C45ED71
:100747002FFDE43CFCED25E0FDEC33FC9002B9E025
:10075700B504C6A3E0B505C17D0B122C33E4FCFD3F
:10076700FE9002AD1203317FB27EB8122C45E4FC35
:10077700FDFEC004C005C006C0079002ADE0FCA3A3
:10078700E0FDA3E0FEA3E0FF780812031ED003D02C
:1007970002D001D000EF2BFFEE3AFEED39FDEC3829
:1007A700FC9002AD1203317FB37EB8122C45E4FCF6
:1007B700FDFEC004C005C006C0079002ADE0FCA363
:1007C700E0FDA3E0FEA3E0FF780812031ED003D0EC
:1007D70002D001D000EF2BFFEE3AFEED39FDEC38E9
:1007E700FC9002AD1203317D017F347EA0122AFCFA
:1007F7007F897ED2122C45EF9002B1F0A3E4F07FFF
:100807008A7ED2122C459002B2E02FF09002B1E01E
:100817003400F0A3E025E0F09002B1E033F07F8BE5
:10082700122C45EF9002B3F0A3E4F07F8C7ED21236
:100837002C459002B4E02FF09002B3E03400F0A30F
:10084700E025E0F09002B3E033F07F9C122C45EFF7
:100857009002B5F0A3E4F07F9D7ED2122C45900262
:10086700B6E02FF09002B5E03400F0A3E025E0F009
:100877009002B5E033F07F94122C45EF9002B7F069
:10088700A3E4F07F957ED2122C459002B8E02FF0BA
:100897009002B7E03400F0A3E025E0F09002B7E063
:1008A70033F07F98122C45EF7B00FA7F997ED212A6
:1008B7002C45EB2FFBE43AFAEB25E0FBEA33FA7F12
:1008C7009E122C45EF9002BBF0A3E4F07F9F7ED2EF
:1008D700122C459002BCE02FF09002BBE03400F0F0
:1008E7007F96122C45EF9002BDF0A3E4F07F977E30
:1008F700D2122C459002BEE02FF09002BDE03400EA
:10090700F07F88122C459002BFEFF07F86122C45AE
:100917009002C0EFF07F87122C459002C1EFF07F65
:10092700A0122C45EF5402C3139002C2F07FA0120D
:100937002C45EF5401F99002ADE0FCA3E0FDA3E0E4
:10094700FEA3E0FF9001931203319002B1E0FFA3F1
:10095700E0900197CFF0A3EFF09002B3E0FFA3E0A0
:10096700900199CFF0A3EFF09002B5E0FFA3E090DC
:10097700019BCFF0A3EFF09002B7E0FFA3E0900157
:100987009DCFF0A3EFF0AE02AF03A3EEF0A3EFF01D
:100997009002BBE0FFA3E09001A1CFF0A3EFF0909E
:1009A70002BDE0FFA3E09001A3CFF0A3EFF0900218
:1009B700BFE09001A5F09002C0E09001A6F0900280
:1009C700C1E09001A7F09002C2E09001A8F0AF014A
:0509D700A3EFF07F0119
:0109DC0022F8
:10254400E4FCFBFAFD7F507EA0122AFC7D020F12F0
:102554002AFC0D0F122AFCE4FD0F122AFC7DF10F58
:10256400122AFC7F50122C45EF4402FD7F50122AA0
:10257400FC7F0C122C45EF540260097F0C122C4591
:10258400EF5401FA7F507EA0122C45EF54FDFD7FDD
:1025940050122AFC7F02122C45EF5480FC7F717E7E
:1025A400C0122C45EF5460FB7D047F507EA0122A9C
:0D25B400FCE4FD7F55122AFC7F57022AFC33
:1026FB009001A8E0640160237F057EC0122C45EF9A
:10270B007F0530E508122C45EF54DF80087EC012A0
:10271B002C45EF4420FD7F05122AFC9001A9E064B3
:10272B000160237F057EC0122C45EF7F0530E40846
:10273B00122C45EF54EF80087EC0122C45EF44104D
:07274B00FD7F05122AFC22AC
:1029B3007D437F357EA0122AFC7D210F122AFC7DE8
:1029C300040F122AFC7D020F122AFC7D130F122A18
:1029D300FC7D430F122AFC7D210F122AFC7D040F7C
:0F29E300122AFC7D020F122AFC7D130F022AFC20
:1020CE00900318E0FB7A006401700D7DFF7F437E64
:1020DE00A0122AFCE4FD8026EB64024A70269003CF
:1020EE001DE06401700D7D5F7F437EA0122AFCE42B
:1020FE00FD800B7DE47F437EA0122AFC7D800F7E47
:10210E00C2122AFC7D347F557EB0122AFC7D9F7F41
:10211E005D122AFC7F5F122AFC7D8F7F61122AFCE2
:10212E007D9F7F63122AFC7F65122AFC7D347F77A8
:10213E00122AFC7D9F7F7F122AFC7F81122AFC7D52
:10214E008F7F83122AFC7D9F7F85122AFC7F871248
:10215E002AFC90031DE0704C7D347F44122AFC7DD6
:10216E009F7F4C122AFC7F4E122AFC7D8F7F5012CD
:10217E002AFC7D9F7F52122AFC7F54122AFC7D344A
:10218E007F66122AFC7D9F7F6E122AFC7F70122AB8
:10219E00FC7D8F7F72122AFC7D9F7F74122AFC7F3A
:0521AE0076122AFC225C
:100CDA00E49002B1F0A3F0A3F07D0B7F347EA01262
:100CEA002AFC7F14122C3CE4FCFDFE9002AD120398
:100CFA00317FB27EB8122C45E4FCFDFEC004C0056B
:100D0A00C006C0079002ADE0FCA3E0FDA3E0FEA38D
:100D1A00E0FF780812031ED003D002D001D000EF02
:100D2A002BFFEE3AFEED39FDEC38FC9002AD1203D2
:100D3A00317FB37EB8122C45E4FCFDFEC004C00529
:100D4A00C006C0079002ADE0FCA3E0FDA3E0FEA34D
:100D5A00E0FF780812031ED003D002D001D000EFC2
:100D6A002BFFEE3AFEED39FDEC38FC9002AD120392
:100D7A00317D017F347EA0122AFCE47BE87A03F9F4
:100D8A00F89002ADE0FCA3E0FDA3E0FEA3E0FF12B1
:100D9A00027B90031EE014601104702E7C007D0318
:100DAA00120173900000E0FD800EEF25E0FFEE33A4
:100DBA00FE900000E0FD7C00120185900318E0FD22
:100DCA007C001201859002B1EFF09002B1E0240F8D
:100DDA00F0E0C394197480948050037419F07D383C
:100DEA007F3A7EB0122AFC7D010F122AFC9002B1D2
:100DFA00E0FFC394BB74809480501BC3EF9450747B
:100E0A0080948040117D187F3E7EB0122AFC9002A9
:100E1A00B27401F080799002B1E0FFC394507480FB
:100E2A009480501BC3EF94287480948040117D08ED
:100E3A007F3E7EB0122AFC9002B27402F08050907B
:100E4A0002B1E0FFC3942874809480501BC3EF94CE
:100E5A00147480948040117D287F3E7EB0122AFC53
:100E6A009002B27404F080279002B1E0FFC3941498
:100E7A00748094805019C3EF940A74809480400F50
:100E8A007D387F3E7EB0122AFC9002B27408F07D53
:100E9A00107F3F7EB0122AF89002B2E0FF9002B1B2
:100EAA00E08FF0A4AEF07803C333CE33CED8F9FF87
:100EBA007C007D1B120185AD077F417EB0122AFCA2
:100ECA007DDF7F0F7E90122AFC7F447EB0122C4574
:100EDA00EF54BFFD7F44122AFC7F017E00122B8152
:100EEA007DFF7F0F7E90122AFC7F447EB0122C4534
:100EFA00EF4440FD7F44122AFC7D1A122C33E4FC95
:100F0A00FDFE9003231203317FB27EB8122C45E412
:100F1A00FCFDFEC004C005C006C007900323E0FC28
:100F2A00A3E0FDA3E0FEA3E0FF780812031ED003AE
:100F3A00D002D001D000EF2BFFEE3AFEED39FDECE6
:100F4A0038FC9003231203317FB37EB8122C45E498
:100F5A00FCFDFEC004C005C006C007900323E0FCE8
:100F6A00A3E0FDA3E0FEA3E0FF780812031ED0036E
:100F7A00D002D001D000EF2BFFEE3AFEED39FDECA6
:100F8A0038FC9003231203317D017F347EA0122A9C
:100F9A00FCE47F04FE1DFC900323E0F8A3E0F9A320
:0D0FAA00E0FAA3E0FB1201F09002B3EFF0BB
:010FB7002217
:101C7F00E47BE87A03F9F8900323E0FCA3E0FDA3EB
:101C8F00E0FEA3E0FF12027BAC07EC75F014842496
:101C9F0004FBEC75F012842406FAEC75F00684044C
:101CAF009002ADF0EC75F00A8404A3F0EC75F00C23
:101CBF00842408A3F0EC75F01984A3F0EC75F005FB
:101CCF0084F97F447EB0122C45EF4480FD7F44128F
:101CDF002AFC7D807EA0122AFC7F49122AFCE4FD9B
:101CEF00FF7EC2122AF87F56122AFC7D0F7F201228
:101CFF002AFC7DFF7F25122AFC7F2C122AFC9002E2
:101D0F00AFE0FD7F22122AFC9002B0E0FD0F122AF5
:101D1F00FCAD010F122AFCAD027F2F122AFCAD037E
:101D2F000F122AFC7DAA0F122AFCAD027F52122A33
:101D3F00FCAD030F122AFC7DAA0F122AFC90031D83
:101D4F00E07028AD037F26122AFCAD020F122AFC89
:101D5F007DAA7F2E122AFCAD027F32122AFCAD0320
:101D6F000F122AFC7DAA7F51122AFCEC75F00A840F
:101D7F002408FD7F287EC2122AFCEB2AFF9002ADB9
:101D8F00E02FFD7F2A122AFC7D107F1B122AFC7D7B
:0B1D9F00507F1D122AFC7F2D022AFC41
:10127D00900199E0FD7F0C7EC2122AFC90019AE04C
:10128D00FD0F122AFC9001A7E0FF9001A6E02FFDB3
:10129D007F35122AFC9001A3E0FD7F06122AFC90F7
:1012AD0001A4E0FD0F122AFC7D557F0F122AFC9040
:1012BD000318E064016003021378900329E024F819
:1012CD00604624086003021517900199E0FD7F38F0
:1012DD007EC2122AFC90019AE0FD0F122AD19003D2
:1012ED001EE0FB7A00700B7D267F17122AFC7D3ED7
:1012FD008074EB64014A60030215177D247F177E0D
:10130D00C2122AFC7D1C805E900199E0FD7F387E23
:10131D00C2122AFC90019AE0FD0F122AFC9001A73F
:10132D00E0FF9001A6E02F14FD7F04122AFC7D0141
:10133D000F122AFC1D7F08122AFC0D122AF39003AE
:10134D001EE0FB7A00700B7D267F17122AFC7D2490
:10135D008014EB64014A60030215177D247F177E0C
:10136D00C2122AFC7D1E7F12021514900199E0FE17
:10137D00A3E07802CEC313CE13D8F9EEFD7F107E15
:10138D00C2122AFC900199E0FEA3E07802CEC313AD
:10139D00CE13D8F9FD7F117EC2122AFC900329E0ED
:1013AD0024F87003021456240860030215179001E7
:1013BD0099E0C313FEEEFD7F387EC2122AFC900128
:1013CD0099E0C313A3E013FD0F7EC2122AD1900141
:1013DD0099E0C313FEEEFD7F367EC2122AFC90010A
:1013ED0099E0C313A3E013FD0F7EC2122AFC9001F6
:1013FD00A6E0FD7F57122AFC9001A7E0FD0F122AEF
:10140D00FC0F122AE990031EE0FB7A0070187DA6EE
:10141D007F17122AFC7F4C122AFC7D3E7F12122A66
:10142D00FC7F5D021514EB64014A60030215177D04
:10143D00A47F177EC2122AFC7F4C122AFC7D1C7FD2
:10144D0012122AFC7F5D021514900199E0C313FE60
:10145D00EEFD7F387EC2122AFC900199E0C313A3E2
:10146D00E013FD0F7EC2122AFC9001A7E0FF900150
:10147D00A6E02F14FD7F04122AFC7D010F122AFC19
:10148D001D7F08122AFC0D122AF3900199E0C31357
:10149D00FEEEFD7F367EC2122AFC900199E0C31349
:1014AD00A3E013FD0F7EC2122AFC9001A7E0FF906E
:1014BD0001A6E02F14FD7F57122AFC7D010F122A81
:1014CD00FC1D0F122AFC0D122AF390031EE0FB7A6D
:1014DD000070177DA67F17122AFC7F4C122AFC7D07
:1014ED00247F12122AFC7F5D801DEB64014A701A65
:1014FD007DA47F177EC2122AFC7F4C122AFC7D1E12
:0B150D007F12122AFC7F5D122AFC22D4
:101FD200E4FD7F1C7EC2122AFC7D807F14122AFC43
:101FE200900000E0147003022088146068146034CA
:101FF2001460030220BB900329E0FF900001E04F30
:10200200FD7F017EC2122AFC900329E0FF900001AD
:10201200E04FFD7F56122AFC7D017F02122AFC7DD1
:10202200A00220B7900001E04430FF900329E04F66
:10203200FD7F017EC2122AFC900001E04430FF9035
:102042000329E04FFD7F56122AFC7D017F02122AEE
:10205200FC7D908060900001E04420FF900329E025
:102062004FFD7F017EC2122AFC900001E04420FF56
:10207200900329E04FFD7F56122AFC7D027F021257
:102082002AFC7D58802F900001E04410FF90032924
:10209200E04FFD7F017EC2122AFC900001E0441055
:1020A200FF900329E04FFD7F56122AFC7D037F0239
:1020B200122AFCE4FD0F122AFC7F147E00122B81EF
:0C20C200900002E0FD7F007EC2022AFCBC
:10284200E4FD7F277EB8122AFC7DC07F007EB01295
:102852002AFCE4FD7F8C122AFC122AF37D7F7F067C
:102862007E90122AFC7D387F3A7EB0122AFCE4FD6B
:102872007F017EC2122AFC7F56122AFC7DBE7F0A8D
:0E2882007E90122AFCE4FD7F057EC0022AFC37
:07292A00900327E0FFE4FD2C
:10293100AC05EF6008E4FD7F8C7EB080317D107FB7
:102941008C7EB0122AFC7F467EA0122C45EF44807B
:10295100FD7F46122AFCEC7F486008122C45EF44AB
:102961000480087EA0122C45EF54FBFD7F48122AFB
:02297100FC2246
:102A2F0090032FE0FD7F0C7ED2122AFC900330E042
:102A3F00FD0F122AFC900331E0FD0F122AFC9003C8
:102A4F0032E0FD0F122AFC900333E0FD0F122AFC37
:092A5F00900334E0FD0F022AFC93
:102C5F007D4F7F1F7EB0122AFC7D2E7F2E022AFC15
:1019500090032D7401F012292AE4FD7F067EC01247
:101960002AFC122638122A2F1228DD122890122B58
:10197000591228421224C0122C5F7D017F347EA0B0
:10198000122AFC7F2C7E01122B817D087F067EC0EF
:10199000122AFC7FF47E01122B81E490032AF0903E
:1019A000032AE07032122B03EF602690032DE064CF
:1019B00001700E1224C01228DD90032A7401F080F9
:1019C0001612036EEF6002800812228BEF6008800F
:1019D0000090032A7404F090032AE06404703290AB
:1019E000032DE070271228427DFB7F077E90122A8C
:1019F000FC12292A7DFF7F077E90122AFC90032D7E
:101A00007401F0E4A3F0122C6F122C5FE490032A0F
:101A1000F090032AE064017056121DAAEF600912CB
:101A200027A3122A9EEF70F1122A9EEF7041122B0B
:101A3000591227F31215181221B3EF60061209DDAF
:101A40001227F37F147E00122B81122A9EEF60086A
:101A500090032A7401F08006122C4CEF70E51229D5
:101A6000F2122B30E490032CF090032A7402F090D1
:101A7000032AE06402701B7FFAFE122B811206B764
:101A8000EF600FE490032DF090032BF090032A7485
:101A900003F090032AE06403600302199F90032D72
:101AA000F0122A681229B31220CE120CDA121C7F0F
:101AB00012292A122B7D900327E0FF7D0112293184
:101AC000900335E0700504F01223B0122544121281
:101AD0007D1226FB122B7D121FD21225C1E490032A
:0A1AE0002AF090032E04F002199F73
:1010DE00617000230000ACDA023001900030002075
:1010EE00005005250500030A180101000159B4043A
:1010FE006003200060004000A005250500030A18CB
:10110E000101000127E6028001E0003000200050BE
:10111E0007B70780030A2A010100024FCC0500031E
:10112E00C00060004000A007B70780030A2A010133
:10113E0000011558025801B800300020005007B7C2
:10114E000780030A2A010100022AB004B0037000CE
:10115E0060004000A007B70780030A2A01010000C3
:10116E009EC001C0014000500010002005E805C8D7
:10117E0010040C010100013D800380028000A000DC
:10118E0020004005E805C810040C0101000127E607
:10119E0003C0032000300020005005230500030685
:1011AE001A010100024FCC0780064000600040008B
:1011BE00A00523050003061A010100024A5E07FC82
:1011CE000780003C0018002804C804B00C04080175
:1011DE000100024A5E07FC0780003C00180028044C
:1011EE00C804B00C040801010003AFE80794060020
:1011FE0000C8000400C8081C08000E020C01010003
:10120E000418D40AA00A00003000200050066E0612
:10121E00400306250101000103C802A80258001967
:10122E00000F0028065E06400A050F0101000207A6
:10123E0090055004B00032001E0050065E06400AB3
:10124E00050F0101602000030784078408820882CD
:10125E001126112611881188101310131015101550
:0E126E000972101610261026430000040760B7
:10177600E49002AAF0A3F0A3F090031604F0E4901C
:101786000327F090031D04F07F8A7EB0122C457B60
:10179600D7EB20E20302194F54F0C4540F9002AA6B
:1017A600F0FA75F017A42423F582E5F03400F583EA
:1017B600E0FCA3E0FDA3E0FEA3E0FF90019312038B
:1017C6003175F017EAA42427F582E5F03400F58395
:1017D600E0FFA3E0900197CFF0A3EFF09002AAE01C
:1017E600FF75F017A42429F582E5F03400F583E0AF
:1017F600FDA3E0900199CDF0A3EDF075F017EFA4ED
:10180600242BF582E5F03400F583E0FFA3E0900198
:101816009BCFF0A3EFF09002AAE0FF75F017A42487
:101826002DF582E5F03400F583E0FDA3E090019DFF
:10183600CDF0A3EDF075F017EFA4242FF582E5F0B7
:101846003400F583E0FFA3E090019FCFF0A3EFF013
:101856009002AAE0FF75F017A42431F582E5F03472
:1018660000F583E0FDA3E09001A1CDF0A3EDF075B6
:10187600F017EFA42433F582E5F03400F583E0FF9A
:10188600A3E09001A3CFF0A3EFF09002AAE0FF75CA
:10189600F017A42435F582E5F03400F583E09001D5
:1018A600A5F075F017EFA42436F582E5F03400F5BF
:1018B60083E09001A6F09002AAE075F017A4243701
:1018C600F582E5F03400F583E09001A7F075F01796
:1018D600EFA42438F582E5F03400F583E09001A802
:1018E600F09002AAE075F017A42439F582E5F034E9
:1018F60000F583E09001A9F0EF25E02403F582E4EA
:101906003400F583E0FCA3E0FD9002ABECF0A3ED20
:10191600F09002ABE09001B5F0ED9001B4F0EB90E1
:10192600031830E1057402F080037401F090031887
:101936007402F0E4900328F090031EF0900329F05F
:09194600EB30E00302195080FEB1
:01194F002275
:102BBF00FFFF000000000000FFFF0000000000000A
:0E2BCF00FFFF000000000000FFFF00000000FC
:102638007D997F627E90122AFC7DF07F317EA01208
:102648002AFC7D207F2E7EB0122AFCE4FD7F297EA5
:10265800B0122AFC7D487F307EB0122AFC7D057FAF
:10266800327EB0122AFC7D557F217EB8122AFC7D6D
:10267800407F3A7EB8122AFC7D117F837ED2122ACF
:10268800FC7D417F087EB8122AFC7DF37F927EA0F4
:03269800022AFC17
:102A9E00E47DFE7F037E90122AFC7F057E00122BC2
:102AAE00817DFF7F037E90122AFC7F0A7E00122B0F
:102ABE00817FB07EB8122C45EF544070037F012207
:022ACE007F0087
:012AD00022E3
:1028DD007DBF7F927EB0122AFCE4FD7F217EB01277
:1028ED002AFC7DC17F227EB0122AFC7D097F287EC5
:1028FD00B0122AFC7D2C7F257EB0122AFC7D7F7FB5
:10290D000F7E90122AFC7F0A7E00122B817DFF7FA5
:0D291D000F7E90122AFC7F0A7E00022B81A3
:092C6F007DC07F217EB0022AFC29
:101DAA007D017F347EA0122AFC7F0A7E00122B81DD
:101DBA007FB17EB8122C45E4FCFDFE90031F12038E
:101DCA00317FB27EB8122C45E4FCFDFEC004C0058A
:101DDA00C006C00790031FE0FCA3E0FDA3E0FEA33A
:101DEA00E0FF780812031ED003D002D001D000EF22
:101DFA002BFFEE3AFEED39FDEC38FC90031F12037F
:101E0A00317FB37EB8122C45E4FCFDFEC004C00548
:101E1A00C006C00790031FE0FCA3E0FDA3E0FEA3F9
:101E2A00E0FF780812031ED003D002D001D000EFE1
:101E3A002BFFEE3AFEED39FDEC38FC90031F12033E
:101E4A0031E47F207E4EFDFC90031FE0F8A3E0F909
:101E5A00A3E0FAA3E0FBC312030D40177F687EA735
:101E6A007D047C0090031FE0F8A3A3A3E0D3120330
:101E7A000D40037F00227F887E017D037C00900352
:101E8A001FE0F8A3E0F9A3E0FAA3E0FBC312030DF5
:101E9A0040047D4780227F007E777D017C0090038D
:101EAA001FE0F8A3E0F9A3E0FAA3E0FBC312030DD5
:101EBA0050047D7780027D677F2A7EB0122AFC7DDE
:0B1ECA00427F2B7EB0122AFC7F012219
:1027A3007D7F7F0F7E90122AFC7F0A7E00122B8191
:1027B3007DFF7F0F7E90122AFC7F0A7E00122B8101
:1027C3007D147F147EB8122AFC7F017E00122B81B8
:1027D3007D947F147EB8122AFC7F017E00122B8128
:1027E3007DB47F147EB8122AFC7F0A7E00022B81FF
:1029F2007DFB7F107E90122AFC7DFB7F077E90126A
:102A02002AFC7DDF7F087E90122AFC7F0A7E00125C
:102A12002B817DFF7F087E90122AFC7DFF7F077E3F
:0D2A220090122AFC7DFF7F107E90022AFC9E
:102B30007DFE7F0B7E90122AFC7F0A7E00122B8185
:102B40007D3F7F0A7E90122AFC7F0A7E00122B8135
:092B50007DBF7F0A7E90022AFC81
:1027F300E4FD7F1F7EB0122AFCE4FD7F207EB01231
:102803002AFC7DBF7F0F7E90122AFC7DFE7F0D7E0A
:1028130090122AFC7DEF7F037E90122AFC7F0A7EB2
:1028230000122B817DFF7F0D7E90122AFC7DFF7F9E
:0F2833000F7E90122AFC7DFF7F037E90022AFC0D
:1015180074FF9002ADF0A3F0A3F0A3F0A3F0A3F042
:1015280078B37C027D01FB7A2B79BF7E007F08129D
:1015380000D378BB7C027D017BFF7A2B79C77E00C4
:101548007F081200D378C37C027D017BFF7A2B7958
:10155800CF7E007F081200D3E49002CBF0A3F0A363
:10156800F0A3F07FA07E867D01FC90031FE0F8A326
:10157800E0F9A3E0FAA3E0FBC312030D400302174E
:101588006C7D0F7F277EB8122AFCE49002CBF09086
:1015980002CBE0FFC3940474809480400302174296
:1015A800EFC454F0FD7F297EB8122AFC9002CBE0EC
:1015B800C454F0FD7F2A7EB8122AFC9002CBE0C406
:1015C80054F0FD7F2B7EB8122AFC7D077F207EC059
:1015D800122AFC7D017F207EC0122AFC7F327E0009
:1015E800122B817F247EC0122C45EF547FFE90027F
:1015F800CBE025E024B3F582E43402F583EEF0A3D2
:10160800E4F07F257EC0122C459002CBE025E02433
:10161800B3F582E43402F583E48FF01201DA7F2611
:101628007EC0122C45EF547FFE9002CBE025E024CB
:10163800BBF582E43402F583EEF0A3E4F07F277E65
:10164800C0122C459002CBE025E024BBF582E4349F
:1016580002F583E48FF01201DA7F287EC0122C4550
:10166800EF547FFE9002CBE025E024C3F582E434FA
:1016780002F583EEF0A3E4F07F297EC0122C45909A
:1016880002CBE0FD25E024C3F582E43402F583E4CF
:101698008FF01201DAED25E024B3F582E43402F587
:1016A80083E0FEA3E0FF9002ADE0FCA3E0FDD3EFF2
:1016B8009DEE9C50129002CBE0FD9002ADEEF0A39F
:1016C800EFF09002CCEDF09002CBE025E024BBF5E2
:1016D80082E43402F583E0FEA3E0FF9002AFE0FC71
:1016E800A3E0FDD3EF9DEE9C50129002CBE0FD905D
:1016F80002AFEEF0A3EFF09002CDEDF09002CBE058
:1017080025E024C3F582E43402F583E0FEA3E0FF7C
:101718009002B1E0FCA3E0FDD3EF9DEE9C50129047
:1017280002CBE0FD9002B1EEF0A3EFF09002CEED17
:10173800F09002CBE004F00215979002CCE0C4547C
:10174800F0FD7F297EB8122AFC9002CDE0C454F047
:10175800FD7F2A7EB8122AFC9002CEE0C454F0FD28
:0D1768007F2B8004E4FD7F277EB8122AFC51
:011775002251
:1021B30078AD7C027D017BFF7A2B79D77E007F0689
:1021C3001200D37D077F207EC0122AFC7D017F2071
:1021D3007EC0122AFC7F647E00122B817F247EC086
:1021E300122C45EF547F7F00FEC006C0077F257E7B
:1021F300C0122C45EFFDD0E02DFED0E0340090025C
:10220300ADF0A3CEF07F267EC0122C45EF547F7F26
:1022130000FEC006C0077F277EC0122C45EFFDD00D
:10222300E02DFED0E034009002AFF0A3CEF07F2883
:102233007EC0122C45EF547F7F00FEC006C0077F8F
:10224300297EC0122C45EFFDD0E02DFED0E03400F6
:102253009002B1F0A3CEF0D39002AEE094009002CE
:10226300ADE09400501C9002B0E094009002AFE007
:102273009400500E9002B2E094009002B1E09400FA
:0722830040037F01227F00F0
:01228A002231
:10233000021776E493A3F8E493A34003F68001F236
:1023400008DFF48029E493A3F85407240CC8C333AE
:10235000C4540F4420C8834004F456800146F6DF7D
:10236000E4800B0102040810204080900FB8E47E46
:10237000019360BCA3FF543F30E509541FFEE49372
:10238000A360010ECF54C025E060A840B8E493A339
:10239000FAE493A3F8E493A3C8C582C8CAC583CA64
:1023A000F0A3C8C582C8CAC583CADFE9DEE780BE1C
:01127C000071
:10000300E709F608DFFA8046E709F208DFFA803EDF
:1000130088828C83E709F0A3DFFA8032E309F608CC
:10002300DFFA8078E309F208DFFA807088828C8334
:10003300E309F0A3DFFA806489828A83E0A3F608E8
:10004300DFFA805889828A83E0A3F208DFFA804CC2
:1000530080D280FA80C680D4806980F28033801099
:1000630080A680EA809A80A880DA80E280CA803302
:1000730089828A83ECFAE493A3C8C582C8CCC5837A
:10008300CCF0A3C8C582C8CCC583CCDFE9DEE7804A
:100093000D89828A83E493A3F608DFF9ECFAA9F0C9
:1000A300EDFB2289828A83ECFAE0A3C8C582C8CC1F
:1000B300C583CCF0A3C8C582C8CCC583CCDFEADE38
:1000C300E880DB89828A83E493A3F208DFF980CC9A
:1000D30088F0EF60010E4E60C388F0ED2402B40493
:1000E3000050B9F582EB2402B4040050AF2323453A
:0600F3008223900053730C
:1000F900BB010689828A83E0225002E722BBFE0205
:09010900E32289828A83E4932237
:10011200BB010CE58229F582E5833AF583E02250A2
:1001220006E92582F8E622BBFE06E92582F8E222EC
:0D013200E58229F582E5833AF583E4932206
:10013F00BB010689828A83F0225002F722BBFE019F
:02014F00F32299
:10015100F8BB010DE58229F582E5833AF583E8F0E4
:10016100225006E92582C8F622BBFE05E92582C890
:02017100F22278
:10017300EF8DF0A4A8F0CF8CF0A428CE8DF0A42EA0
:02018300FE225A
:10018500BC000BBE0029EF8DF084FFADF022E4CC5E
:10019500F875F008EF2FFFEE33FEEC33FCEE9DEC27
:1001A500984005FCEE9DFE0FD5F0E9E4CEFD22ED6D
:1001B500F8F5F0EE8420D21CFEADF075F008EF2FB7
:1001C500FFED33FD4007985006D5F0F222C398FDA8
:0501D5000FD5F0EA2245
:1001DA00C5F0F8A3E028F0C5F0F8E58215827002B0
:0601EA001583E038F0224D
:1001F000E88FF0A4CC8BF0A42CFCE98EF0A42CFCAE
:100200008AF0EDA42CFCEA8EF0A4CDA8F08BF0A42B
:100210002DCC3825F0FDE98FF0A42CCD35F0FCEB8A
:100220008EF0A4FEA9F0EB8FF0A4CFC5F02ECD394F
:0F023000FEE43CFCEAA42DCE35F0FDE43CFC22BC
:10023F0075F008758200EF2FFFEE33FECD33CDCC76
:10024F0033CCC58233C5829BED9AEC99E5829840F9
:10025F000CF582EE9BFEED9AFDEC99FC0FD5F0D6D6
:10026F00E4CEFBE4CDFAE4CCF9A88222B800C1B900
:10027F000059BA002DEC8BF084CFCECDFCE5F0CB3E
:10028F00F97818EF2FFFEE33FEED33FDEC33FCEB77
:10029F0033FB10D703994004EB99FB0FD8E5E4F932
:1002AF00FA227818EF2FFFEE33FEED33FDEC33FC1F
:1002BF00C933C910D7059BE99A4007EC9BFCE99A13
:1002CF00F90FD8E0E4C9FAE4CCFB2275F010EF2F58
:1002DF00FFEE33FEED33FDCC33CCC833C810D70758
:1002EF009BEC9AE899400AED9BFDEC9AFCE899F893
:0E02FF000FD5F0DAE4CDFBE4CCFAE4C8F92226
:10030D00EB9FF5F0EA9E42F0E99D42F0E89C45F046
:01031D0022BD
:10031E00E8600FEFC333FFEE33FEED33FDEC33FC3D
:03032E00D8F122E1
:0C033100ECF0A3EDF0A3EEF0A3EFF0223F
:10033D00A8828583F0D083D0821203541203541205
:10034D000354120354E473E493A3C583C5F0C5832A
:10035D00C8C582C8F0A3C583C5F0C583C8C582C80A
:01036D00226D
:00000001FF
