:030000000224F5E2
:0C24F500787FE4F6D8FD75810702253CD5
:100C6C00610001AA00FFFFFFFFFFFF0015851620A2
:100C7C00528C34012820010381202078EAEBF59571
:100C8C00595490271E50540000000101010101012C
:100C9C00010101010101010101012F19E0581100AD
:100CAC001850A0182200E0001500001E00000000E3
:100CBC000000000000000000000000000000000028
:100CCC000000000000000000000000000000000018
:100CDC00000000FC00456C65634C6162204C434491
:100CEC000A200100020310402309070767030C00C8
:100CFC000000001E000000000000000000000000CA
:100D0C0000000000000000000000000000000000D7
:100D1C0000000000000000000000000000000000C7
:100D2C0000000000000000000000000000000000B7
:100D3C0000000000000000000000000000000000A7
:100D4C000000000000000000000000000000000097
:100D5C000000000000000000000000000000000087
:040D6C000000000083
:0B1B2C009002ADEBF0A3EAF0A3E9F09B
:101B370090019DE0FEA3E0FF90019CE02FFF900144
:101B47009BE03EFE9001A0E02FFF90019FE03E90BA
:101B570002B0F0A3EFF09001A6E0FF9001A5E02FFF
:101B6700FFE433FE9001A7E07C002FFFEC3E9002DC
:101B7700B2F0A3EFF0E47B0AFAF9F8900193E0FCE6
:101B8700A3E0FDA3E0FEA3E0FF12027B9002ADE01D
:101B9700FBA3E0FAA3E0F9EF12013FE47B0AFAF9AD
:101BA700F8900193E0FCA3E0FDA3E0FEA3E0FF12A1
:101BB700027BE4FB7A01F9F812027B9002ADE0FBAD
:101BC700A3E0FAA3E0F9900001EF12015190019907
:101BD700E0FEA3E09000021201519002B1E09000F4
:101BE70003120151EEC4F8540FC868FFAD07900205
:101BF700B0E02D9000041201519001A4E09000057F
:101C07001201519002B3E09000061201519001A316
:101C1700E0C4F8540FC868FFAC079002B2E02C90FC
:101C2700000712015190019CE090000812015190A9
:101C3700019EE09000091201519001A5E0540FC4E4
:101C470054F0FFA3E0540F2F90000A1201519001A6
:101C57009DE0C4F8540FC868FFAC0790019BE07E75
:101C6700007806C333CE33CED8F92CFF9001A5E018
:101C7700C4540F25E025E02FFFA3E0C4540F2F9095
:101C8700000B12015190019AE090000C1201519043
:101C970001A4E090000D1201519001A3E02D9000E6
:101CA7000E1201519001A8E025E04418FFA3E0259A
:0A1CB700E025E04F900011020151FA
:0B2581009002ADEBF0A3EAF0A3E9F03C
:10258C00E4FFFEEEC3947F7480948050189002ADEB
:10259C00E0FBA3E0FAA3E0F98E827583001201122E
:1025AC002FFF0E80DEC3E49FFF9002ADE0FBA3E0A3
:1025BC00FAA3E0F990007FEF120151E4FFFEEEC3A5
:1025CC00947F74809480501EEE2480FDE433FC9044
:1025DC0002ADE0FBA3E0FAA3E0F98D828C8312013B
:1025EC00122FFF0E80D8C3E49FFF9002ADE0FBA337
:0C25FC00E0FAA3E0F99000FFEF020151AB
:102BF00000010000000000000001000100000001D1
:102C000000010002000000020001000300000003B8
:102C100000020007000000070002000B0000000B8C
:102C20000002000F0000000F0004001F0000001F42
:100D700044031F0000000044031900000000440366
:050D800023000000004B
:1014660005200005210005010005110005290032AF
:10147600000015E00015E19315E26515E3F8158007
:101486000315E00115000015015B1503101504375F
:10149600150C741517001518DF151901151A001506
:1014A6001BDF151C01151F2F15202F15212F1522A7
:1014B6000E1524FE153709153804153900153A019D
:1014C600153C90153DFF153EFF153FFF15400215D3
:1014D60041B215430615440A15453C154B041555EE
:1014E6000215560115578915580A15590A155A280D
:1014F600155B1A155D7C155E57155F44156036152C
:10150600613115622315632615640F156528156666
:1015160026156727156845156935156A3D156B2F1C
:10152600156C2B156D1E156E0D156F0015707C153F
:101536007157157244157336157431157523157662
:101546002615770F157828157926157A27157B45E0
:10155600157C35157D3D157E2F157F2B15801E15A7
:10156600810D15820015E002150075150150150252
:101576005515034315045E15055F15064115075FEE
:10158600150845150947150A49150B4B150C5F1526
:101596000D5F150E5F150F5F15105F15115F1512A4
:1015A6005F15135F15145F15155F15167515175022
:1015B600151855151942151A5E151B5F151C401591
:1015C6001D5F151E44151F4615204815214A152274
:1015D6005F15235F15245F15255F15265F15275FA9
:1015E60015285F15295F152A5F152B5F152C5E15CB
:1015F6002D5F152E75152F501530471531471532AD
:101606004515334515344B15354B153649153749B0
:1016160015385F15395F153A55153B55153C431579
:101626003D41153E5F153F5F15405F15415F154211
:101636005E15435F154475154550154646154746D4
:10164600154844154944154A4A154B4A154C481540
:101656004D48154E5F154F5F15505515515515528E
:101666004215534015545F15555F15565F15575F64
:10167600155800155900155A00155B30155C0015F4
:101686005D30155E00155F0015603015610015624E
:101696000015630615646A1565451566AF1567730B
:1016A600156804156906156A6A156B08156C001528
:1016B6006D04156E04156F8815700015710015728E
:1016C6000615737B1574001575071576001577D00A
:1016D6001578171579B0157A00157B00157C00155D
:1016E6007D06157E6A157F4015E00015E60215E7B2
:0416F6000C1535009A
:0720A600E493FF7BFF7D02C4
:1020AD009002AEEFF0A3EDF0A3EBF0A3EAF0A3E9FD
:0120BD00F032
:1020BE00E4A3F07D407F1C7EC2122D3A9002AFE069
:1020CE006402704F7D0C7F187EC2122D3A7D047F04
:1020DE00197EC2122D3A9002AEE0FD7F347EC212FE
:1020EE002D3A9002B0E0FBA3E0FAA3E0F91200F95A
:1020FE00FD7F347EC2122D3A9002B0E0FBA3E0FACF
:10210E00A3E0F9900001120112FD7F347EC2122D60
:10211E003A80727D0E7F187EC2122D3A9002AFE089
:10212E002406FD7F197EC2122D3A9002AEE0FD7F8D
:10213E00347EC2122D3A9002AFE0FD7F347EC21281
:10214E002D3AE4FD7F347EC2122D3AE49002B3F0B4
:10215E009002AFE0FF9002B3E0C39F50289002B010
:10216E00E0FBA3E0FAA3E0F91200F9FD7F347EC292
:10217E00122D3A9002B1E475F0011201DA9002B319
:10218E00E004F080CB7F017E00122D71E4FD7F18FC
:05219E007EC2022D3A93
:10278E00E49002ADF09002ADE0C394D674809480D4
:10279E00503B7F017E00122D719002ADE0FE75F070
:1027AE0003A42478F582E5F03414F583E493FDEE6A
:1027BE0075F003A42479F9741435F0FA7BFFAF0594
:1027CE007D021220AD9002ADE004F080B87F647EF1
:1027DE0000122D7190146F7A1479701220A67FC892
:1027EE007E00122D719014727A1479731220A67FC6
:0627FE00327E00022D7185
:1028D700FFFF0000000000000000000000000000F3
:1028E70000000000000000000000000000000000E1
:1028F700FFFF0000000000000000000000000000D3
:1029070000000000000000000000000000000000C0
:10291700FFFF0000000000000000000000000000B2
:1029270000000000000000000000000000000000A0
:0D0D850046032F010000000003410335006C
:102D0F00122D3A9001A6E0FD7F04122D3A9001A7F3
:102D1F00E0FD0F122D3A7F089001A5E0FD122D3A2C
:0B2D2F007D0F0F122D3A0F122D3A0FEE
:072D3A008F828E83EDF02271
:102E25007D017F347EA0122D3A7F0A7E00122D711E
:042E35007FB17EB833
:072E39008F828E83E0FF226F
:072D6A00122D3A7F017E00EB
:102D7100EF1FAA0670011E4A6013E4FCFDC3ED9427
:0D2D8100AFEC940050EA0DBD00010C80F095
:012D8E002222
:102ACC00900316E060097B017A0179E0121B2C7BE4
:102ADC00017A0179AA1225817D037F8E7EC0122D89
:102AEC003AE4FBFA74AA2BF58274013AF583E0FD03
:102AFC007F907EC0122D3A0BBB00010AE4B503E4B3
:0D2B0C00EAB401E07D027F8E7EC0022D3A0A
:10268D007D137F557E90122D3A7D807F57122D3A06
:10269D00E4FD0F122D3A7D400F122D3A7D030F12DE
:1026AD002D3A7DFF0F122D3A7D987F5D122D3A7DCB
:1026BD00FF7F51122D3A122D317D130F122D3A7DC0
:1026CD00FF0F122D3A7D800F122D3AE4FD0F122DC2
:1026DD003A7D400F122D3A7D030F122D3A7D7F0F5B
:1026ED00122D3A7DFF0F122D3A7D980F122D3A7D46
:1026FD00FF122D31122D310F122D3A7D207F2E7E9E
:04270D00B0022D3AAF
:10298E007D077F8E7EB0122D3A7D770F122D3A7D08
:10299E00F17F147ED1122D3A7D1F7F567E90122D1F
:1029AE003A7D987F62122D3A7F147ED1122E39EF26
:1029BE004408FD7F14122D3A122E39EF54FBFD7F81
:1029CE0014122D3A1F122E39EF54FEFD7F13022DD5
:0129DE003ABE
:102DD100EF7F147ED16008122E39EF54F78006126E
:0C2DE1002E39EF4408FD7F14122D3A2219
:102DED00EF7F147ED16008122E39EF440480061255
:0C2DFD002E39EF54FBFD7F14122D3A22FA
:102E0900EF7F137ED16008122E39EF44018006123C
:0C2E19002E39EF54FEFD7F13122D3A22DB
:10280400E4FDFF7EB0122D3A7D327F8C122D3A7D8D
:10281400770F122D3A90031DE0FB7A0064017005D6
:102824007D070F800AEB4A70097D777F8E7EB01298
:102834002D3A7D777F8F7EB0122D3A7D027F137EF5
:10284400D1122D3A7D1B0F122D3A7DC20F122D3A53
:102854007D207F10122D3A7DFF7F29122D367D7F3A
:102864007F067E90122D6A7DFF7F067E90022D3AB0
:102CA6009002AD12033D00000000122E25AD077FF5
:102CB600127ED2122D3A7FB27EB8122E39AD077F20
:102CC600147ED2122D3A7FB37EB8122E39AD077F0D
:062CD600157ED2022D3A2A
:102BAF009002AD12033D000000009002B112033DF0
:102BBF00000000007D357F087EB8122D3A7D017F21
:102BCF00347EA0122D3A7F0A7E00122D717FB07EC7
:102BDF00B8122E39EF5401640170037F01227F0078
:012BEF0022C3
:10245C007F8B7ED2122E39EF7D00FC7F8C7ED212C8
:10246C002E39ED2FFDE43CFCED25E0FDEC33FC7F3B
:10247C0096122E39EF9002AFF0A3E4F07F977ED244
:10248C00122E399002B0E02FF09002AFE03400F041
:10249C007F0C7EC2122E39EF9002ADF0A3E4F07FD8
:1024AC000D7EC2122E399002AEE02FF09002ADE0FC
:1024BC003400F07F06122E39EF7B00FA7F077EC2C4
:1024CC00122E39EB2FFBE43AFAAE04AF059002ADB5
:1024DC00E0B5060FA3E0B5070AA3E06A7003A3E01A
:0824EC006B60037F01227F00F9
:0124F40022C5
:1011CC009002AD12033D000000009002B112033DED
:1011DC00000000009002B512033D00000000122E2A
:1011EC0025E4FCFDFE9002AD1203317FB27EB812F5
:1011FC002E39E4FCFDFEC004C005C006C0079002F9
:10120C00ADE0FCA3E0FDA3E0FEA3E0FF7808120331
:10121C001ED003D002D001D000EF2BFFEE3AFEED32
:10122C0039FDEC38FC9002AD1203317FB37EB8125D
:10123C002E39E4FCFDFEC004C005C006C0079002B8
:10124C00ADE0FCA3E0FDA3E0FEA3E0FF78081203F1
:10125C001ED003D002D001D000EF2BFFEE3AFEEDF2
:10126C0039FDEC38FC9002AD1203317F127ED212A4
:10127C002E39E4FCFDFE9002B11203317F147ED2B4
:10128C00122E39E4FCFDFEC004C005C006C0079058
:10129C0002B1E0FCA3E0FDA3E0FEA3E0FF7808129E
:1012AC00031ED003D002D001D000EF2BFFEE3AFE8C
:1012BC00ED39FDEC38FC9002B11203317F157ED272
:1012CC00122E39E4FCFDFEC004C005C006C0079018
:1012DC0002B1E0FCA3E0FDA3E0FEA3E0FF7808125E
:1012EC00031ED003D002D001D000EF2BFFEE3AFE4C
:1012FC00ED39FDEC38FC9002B11203317D21122E38
:10130C0027E4FCFDFE9002B51203317FB27EB812C9
:10131C002E39E4FCFDFEC004C005C006C0079002D7
:10132C00B5E0FCA3E0FDA3E0FEA3E0FF7808120308
:10133C001ED003D002D001D000EF2BFFEE3AFEED11
:10134C0039FDEC38FC9002B51203317FB37EB81234
:10135C002E39E4FCFDFEC004C005C006C007900297
:10136C00B5E0FCA3E0FDA3E0FEA3E0FF78081203C8
:10137C001ED003D002D001D000EF2BFFEE3AFEEDD1
:10138C0039FDEC38FC9002B51203319002B1E0FC4F
:10139C00A3E0FDA3E0FEA3E0FF9002ADE0F8A3E024
:1013AC00F9A3E0FAA3E0FBD312030D40579002B16E
:1013BC00E0F8A3E0F9A3E0FAA3E0FB9002ADE0FCB7
:1013CC00A3E0FDA3E0FEA3E09BFFEE9AFEED99FDEA
:1013DC00EC98FCE47B207A4EF9F8C312030D500311
:1013EC007F0122E47F207E4EFDFC9002B5E0F8A345
:1013FC00E0F9A3E0FAA3E0FBC312030D50037F0155
:10140C00227F00229002ADE0F8A3E0F9A3E0FAA35A
:10141C00E0FBA3E0FCA3E0FDA3E0FEA3E0C39BFF85
:10142C00EE9AFEED99FDEC98FCE47B207A4EF9F8EF
:10143C00C312030D50037F0122E47F207E4EFDFC7E
:10144C009002B5E0F8A3E0F9A3E0FAA3E0FBC31225
:09145C00030D50037F01227F0003
:011465002264
:102D8F007D017F007ED8122D3A1D7F5A122D3A7D7C
:102D9F0007122D35E4FD0F122D3A7D070F122D3A34
:042DAF000F022D3AA8
:1006980074FF9002B0F0A3F0A3F0A3F0A3F0A3F0CE
:1006A80078B67C027D01FB7A2879D77E007F2012FC
:1006B80000D378D67C027D017BFF7A2879F77E000B
:1006C8007F201200D378F67C027D017BFF7A29799E
:1006D800177E007F201200D37D017F007ED8122D67
:1006E8003A7B0FEBD394077480948050030208DDA3
:1006F800EB25E025E024F0F582E4342BF583740142
:1007080093C454F0FD7F5A7ED8122D3AEB25E0258C
:10071800E024F2F582E4342BF583740193FD7F5CC9
:10072800122D3AEB25E025E024F0F582E4342BF590
:1007380083E474019375F011A4FD0F122D3AEB2593
:10074800E025E024F2F582E4342BF583740193FD6F
:100758000F122D3AEB25E025E024F2F582E4342B44
:10076800F583740193FD0F122D3A7D077F207EC01B
:10077800122D3A7D01122D3A7F647E00122D717F71
:10078800247EC0122E39EF547FFEEB25E024B6F507
:1007980082E43402F583EEF0A3E4F07F257EC012F4
:1007A8002E39EB25E024B6F582E43402F583E48F94
:1007B800F01201DA7F26122E39EF547FFEEB25E086
:1007C80024D6F582E43402F583EEF0A3E4F07F2723
:1007D8007EC0122E39EB25E024D6F582E43402F5EA
:1007E80083E48FF01201DA7F28122E39EF547FFE4E
:1007F800EB25E024F6F582E43402F583EEF0A3E479
:10080800F07F297EC0122E39EB25E024F6F582E42C
:100818003402F583E48FF01201DAEB25E024B6F513
:1008280082E43402F583E0FEA3E0FF9002B0E0FC2E
:10083800A3E0FDD3EF9DEE9C501DEB25E024B6F51B
:1008480082E43402F583E0FFA3E09002B0CFF0A386
:10085800EFF09002ADEBF0EB25E024D6F582E4341E
:1008680002F583E0FEA3E0FF9002B2E0FCA3E0FD06
:10087800D3EF9DEE9C501DEB25E024D6F582E434A1
:1008880002F583E0FFA3E09002B2CFF0A3EFF0906F
:1008980002AEEBF0EB25E024F6F582E43402F583B2
:1008A800E0FEA3E0FF9002B4E0FCA3E0FDD3EF9DDF
:1008B800EE9C501DEB25E024F6F582E43402F58326
:1008C800E0FFA3E09002B4CFF0A3EFF09002AFEB0B
:1008D800F01B0206EB9002ADE025E025E024F0F5E0
:1008E80082E4342BF583E474019375F011A4FD7F41
:1008F8005A7ED8122D3A9002ADE025E025E024F288
:10090800F582E4342BF583740193FD0F122D3A9090
:1009180002ADE025E025E024F2F582E4342BF583EE
:10092800740193FD0F122D3A9002AFE025E025E007
:1009380024F0F582E4342BF583740193C454F0FF5A
:100948009002AEE025E025E024F0F582E4342BF5B2
:10095800837401932FFD7F5D122D3A9002AEE0253E
:10096800E025E024F2F582E4342BF583740193FD4D
:100978000F122D3A9002AFE025E025E024F2F5822F
:0D098800E4342BF583740193FD0F022D3A2A
:102E40007F027EA0122E39EF542064207002FF22F0
:022E50007F0100
:012E5200225D
:10036E007F8B7ED2122E39EF9002B9F0A3E4F07F8C
:10037E008C7ED2122E399002BAE02FF09002B9E0A4
:10038E003400F0A3E025E0F09002B9E033F0122D36
:10039E00417FFA7E00122D717F8B7ED2122E39EFA5
:1003AE007D00FC7F8C7ED2122E39ED2FFDE43CFCBD
:1003BE00ED25E0FDEC33FCE49002C3F0C39002BAED
:1003CE00E09D9002B9E09C50439002C3E004F0E03F
:1003DE00D39405748094805033122D417FC87E00D3
:1003EE00122D717F8B7ED2122E39EF7D00FC7F8C09
:1003FE00122E39ED2FFDE43CFCED25E0FDEC33FC37
:10040E009002B9E0B504C2A3E0B505BD7D0B122E76
:10041E0027E4FCFDFE9002AD1203317FB27EB812CE
:10042E002E39E4FCFDFEC004C005C006C0079002D4
:10043E00ADE0FCA3E0FDA3E0FEA3E0FF780812030D
:10044E001ED003D002D001D000EF2BFFEE3AFEED0E
:10045E0039FDEC38FC9002AD1203317FB37EB81239
:10046E002E39E4FCFDFEC004C005C006C007900294
:10047E00ADE0FCA3E0FDA3E0FEA3E0FF78081203CD
:10048E001ED003D002D001D000EF2BFFEE3AFEEDCE
:10049E0039FDEC38FC9002AD1203317D017F347EC4
:1004AE00A0122D3A7F897ED2122E39EF9002B1F032
:1004BE00A3E4F07F8A7ED2122E399002B2E02FF0A2
:1004CE009002B1E03400F0A3E025E0F09002B1E03C
:1004DE0033F07F8B122E39EF9002B3F0A3E4F07F4E
:1004EE008C7ED2122E399002B4E02FF09002B3E03F
:1004FE003400F0A3E025E0F09002B3E033F07F9CEF
:10050E00122E39EF9002B5F0A3E4F07F9D7ED21249
:10051E002E399002B6E02FF09002B5E03400F0A331
:10052E00E025E0F09002B5E033F07F94122E39EF23
:10053E009002B7F0A3E4F07F957ED2122E3990028E
:10054E00B8E02FF09002B7E03400F0A3E025E0F021
:10055E009002B7E033F07F98122E39EF7B00FA7FCE
:10056E00997ED2122E39EB2FFBE43AFAEB25E0FB03
:10057E00EA33FA7F9E122E39EF9002BBF0A3E4F01D
:10058E007F9F7ED2122E399002BCE02FF09002BBDC
:10059E00E03400F07F96122E39EF9002BDF0A3E406
:1005AE00F07F977ED2122E399002BEE02FF090028D
:1005BE00BDE03400F07F88122E399002BFEFF07F3D
:1005CE0086122E399002C0EFF07F87122E399002DC
:1005DE00C1EFF07FA0122E39EF5402C3139002C266
:1005EE00F07FA0122E39EF5401F99002ADE0FCA37A
:1005FE00E0FDA3E0FEA3E0FF900193120331900211
:10060E00B1E0FFA3E0900197CFF0A3EFF09002B31B
:10061E00E0FFA3E0900199CFF0A3EFF09002B5E0D8
:10062E00FFA3E090019BCFF0A3EFF09002B7E0FFA5
:10063E00A3E090019DCFF0A3EFF0AE02AF03A3EEC7
:10064E00F0A3EFF09002BBE0FFA3E09001A1CFF08A
:10065E00A3EFF09002BDE0FFA3E09001A3CFF0A3C3
:10066E00EFF09002BFE09001A5F09002C0E0900183
:10067E00A6F09002C1E09001A7F09002C2E09001B6
:09068E00A8F0AF01A3EFF07F0119
:010697002240
:10271100E4FCFBFAFD7F507EA0122D3A7D020F12E0
:102721002D3A0D0F122D3AE4FD0F122D3A7DF10FC6
:10273100122D3A7F50122E39EF4402FD7F50122D97
:102741003A7F0C122E39EF540260097F0C122E3998
:10275100EF5401FA7F507EA0122E39EF54FDFD7F18
:1027610050122D3A7F02122E39EF5480FC7F717E78
:10277100C0122E39EF5460FB7D047F507EA0122DD4
:0D2781003AE4FD7F55122D3A7F57022D3AA4
:102937009001A8E0640160237F057EC0122E39EF65
:102947007F0530E508122E39EF54DF80087EC0126C
:102957002E39EF4420FD7F05122D3A9001A9E0643E
:102967000160237F057EC0122E39EF7F0530E40812
:10297700122E39EF54EF80087EC0122E39EF441023
:07298700FD7F05122D3A222D
:102608007D437F357EA0122D3A7D210F122D3AE4AD
:10261800FD0F122D3A7D120F122D3A7D340F122D17
:102628003A7D430F122D3A7D210F122D3AE4FD0F0A
:10263800122D3A7D120F122D3A7D340F122D3A7D4C
:10264800C07F577EB0122D3A7DD47F5C122D3A7F21
:102658005E122D3A7F60122D3A7F62122D3A7F6406
:10266800122D3A7DC07F79122D3A7DD47F7E122DAE
:102678003A7F80122D3A7F82122D3A7F84122D3AAA
:052688007F86022D3ADF
:10229F00900318E0FB7A006401700D7DFF7F437E91
:1022AF00A0122D3AE4FD8026EB64024A70269003BB
:1022BF001DE06401700D7DF57F437EA0122D3AE481
:1022CF00FD800B7DE47F437EA0122D3A7D800F7E33
:1022DF00C2122D3A7D347F557EB0122D3A7D9F7FED
:1022EF005D122D3A7F5F122D3A7D8F7F61122D3A4D
:1022FF007D9F7F63122D3A7F65122D3A7D347F7754
:10230F00122D3A7D9F7F7F122D3A7F81122D3A7DBC
:10231F008F7F83122D3A7D9F7F85122D3A7F8712F3
:10232F002D3A90031DE0704C7D347F44122D3A7D81
:10233F009F7F4C122D3A7F4E122D3A7D8F7F501278
:10234F002D3A7D9F7F52122D3A7F54122D3A7D34B4
:10235F007F66122D3A7D9F7F6E122D3A7F70122D60
:10236F003A7D8F7F72122D3A7D9F7F74122D3A7FA7
:05237F0076122D3A2248
:10099500E49002B1F0A3F0A3F07D0B7F347EA012AA
:1009A5002D3A7F14122E30E4FCFDFE9002AD1203A9
:1009B500317FB27EB8122E39E4FCFDFEC004C005BD
:1009C500C006C0079002ADE0FCA3E0FDA3E0FEA3D6
:1009D500E0FF780812031ED003D002D001D000EF4B
:1009E5002BFFEE3AFEED39FDEC38FC9002AD12031B
:1009F500317FB37EB8122E39E4FCFDFEC004C0057C
:100A0500C006C0079002ADE0FCA3E0FDA3E0FEA395
:100A1500E0FF780812031ED003D002D001D000EF0A
:100A25002BFFEE3AFEED39FDEC38FC9002AD1203DA
:100A3500317D017F347EA0122D3AE47BE87A03F9FB
:100A4500F89002ADE0FCA3E0FDA3E0FEA3E0FF12F9
:100A5500027B90031EE014601104702E7C007D0360
:100A6500120173900000E0FD800EEF25E0FFEE33EC
:100A7500FE900000E0FD7C00120185900318E0FD6A
:100A85007C001201859002B1EFF09002B1E0240FD5
:100A9500F0E0C394197480948050037419F07D3884
:100AA5007F3A7EB0122D3A7D010F122D3A9002B198
:100AB500E0FFC394BB74809480501BC3EF945074C3
:100AC50080948040117D187F3E7EB0122D3A9002B1
:100AD500B27401F080799002B1E0FFC39450748044
:100AE5009480501BC3EF94287480948040117D0836
:100AF5007F3E7EB0122D3A9002B27402F080509083
:100B050002B1E0FFC3942874809480501BC3EF9416
:100B1500147480948040117D287F3E7EB0122D3A5A
:100B25009002B27404F080279002B1E0FFC39414E0
:100B3500748094805019C3EF940A74809480400F98
:100B45007D387F3E7EB0122D3A9002B27408F07D5A
:100B5500107F3F7EB0122D369002B2E0FF9002B1B9
:100B6500E08FF0A4AEF07803C333CE33CED8F9FFCF
:100B75007C007D1B120185AD077F417EB0122D3AA9
:100B85007DDF7F0F7E90122D3A7F447EB0122E3985
:100B9500EF54BFFD7F44122D6A7DFF7F0F7E9012BB
:100BA5002D3A7F447EB0122E39EF4440FD7F44122A
:100BB5002D3A7D1A122E27E4FCFDFE900323120325
:100BC500317FB27EB8122E39E4FCFDFEC004C005AB
:100BD500C006C007900323E0FCA3E0FDA3E0FEA34D
:100BE500E0FF780812031ED003D002D001D000EF39
:100BF5002BFFEE3AFEED39FDEC38FC900323120392
:100C0500317FB37EB8122E39E4FCFDFEC004C00569
:100C1500C006C007900323E0FCA3E0FDA3E0FEA30C
:100C2500E0FF780812031ED003D002D001D000EFF8
:100C35002BFFEE3AFEED39FDEC38FC900323120351
:100C4500317D017F347EA0122D3AE47F04FE1DFC28
:100C5500900323E0F8A3E0F9A3E0FAA3E0FB120177
:060C6500F09002B3EFF075
:010C6B002266
:101E5000E47BE87A03F9F8900323E0FCA3E0FDA318
:101E6000E0FEA3E0FF12027BAC07EC75F0148424C3
:101E700004FBEC75F012842406FAEC75F006840479
:101E80009002ADF0EC75F00A8404A3F0EC75F00C50
:101E9000842408A3F0EC75F01984A3F0EC75F00528
:101EA00084F97F447EB0122E39EF4480FD7F4412C6
:101EB0002D3A7D807EA0122D3A7F49122D3AE4FD05
:101EC000FF7EC2122D367F56122D3A7D0F7F2012D3
:101ED0002D3A7DFF7F25122D3A7F2C122D3A90024C
:101EE000AFE0FD7F22122D3A9002B0E0FD0F122DDF
:101EF0003AAD010F122D3AAD027F2F122D3AAD03EC
:101F00000F122D3A7DAA0F122D3AAD027F52122DDB
:101F10003AAD030F122D3A7DAA0F122D3A90031DF0
:101F2000E07028AD037F26122D3AAD020F122D3A34
:101F30007DAA7F2E122D3AAD027F32122D3AAD03CB
:101F40000F122D3A7DAA7F51122D3AEC75F00A84BA
:101F50002408FD7F287EC2122D3AEB2AFF9002ADA5
:101F6000E02FFD7F2A122D3A7D107F1B122D3A7D26
:0B1F7000507F1D122D3A7F2D022D3AEC
:100F3100900199E0FD7F0C7EC2122D3A90019AE05A
:100F4100FD0F122D3A9001A7E0FF9001A6E02FFDC1
:100F51007F35122D3A9001A3E0FD7F06122D3A90C4
:100F610001A4E0FD0F122D3A7D557F0F122D3A900D
:100F71000318E06401600302102C900329E024F8B7
:100F81006046240860030211CB900199E0FD7F388F
:100F91007EC2122D3A90019AE0FD0F122D0F90039F
:100FA1001EE0FB7A00700B7D267F17122D3A7D3EE5
:100FB1008074EB64014A60030211CB7D247F177EAC
:100FC100C2122D3A7D1C805E900199E0FD7F387E32
:100FD100C2122D3A90019AE0FD0F122D3A9001A70D
:100FE100E0FF9001A6E02F14FD7F04122D3A7D0150
:100FF1000F122D3A1D7F08122D3A0D122D3190033B
:101001001EE0FB7A00700B7D267F17122D3A7D249E
:101011008014EB64014A60030211CB7D247F177EAB
:10102100C2122D3A7D1E7F120211C8900199E0FE75
:10103100A3E07802CEC313CE13D8F9EEFD7F107E64
:10104100C2122D3A900199E0FEA3E07802CEC313BB
:10105100CE13D8F9FD7F117EC2122D3A900329E0FB
:1010610024F8700302110A240860030211CB9001D5
:1010710099E0C313FEEEFD7F387EC2122D3A900136
:1010810099E0C313A3E013FD0F7EC2122D0F90014F
:1010910099E0C313FEEEFD7F367EC2122D3A900118
:1010A10099E0C313A3E013FD0F7EC2122D3A900104
:1010B100A6E0FD7F57122D3A9001A7E0FD0F122DFA
:1010C1003A0F122D2790031EE0FB7A0070187DA6BF
:1010D1007F17122D3A7F4C122D3A7D3E7F12122D31
:1010E1003A7F5D0211C8EB64014A60030211CB7DB6
:1010F100A47F177EC2122D3A7F4C122D3A7D1C7FA0
:1011010012122D3A7F5D0211C8900199E0C313FEBE
:10111100EEFD7F387EC2122D3A900199E0C313A3F0
:10112100E013FD0F7EC2122D3A9001A7E0FF90015E
:10113100A6E02F14FD7F04122D3A7D010F122D3AE6
:101141001D7F08122D3A0D122D31900199E0C31324
:10115100FEEEFD7F367EC2122D3A900199E0C31357
:10116100A3E013FD0F7EC2122D3A9001A7E0FF907C
:1011710001A6E02F14FD7F57122D3A7D010F122D8C
:101181003A1D0F122D3A0D122D3190031EE0FB7AFC
:101191000070177DA67F17122D3A7F4C122D3A7DD4
:1011A100247F12122D3A7F5D801DEB64014A701A73
:1011B1007DA47F177EC2122D3A7F4C122D3A7D1EDF
:0B11C1007F12122D3A7F5D122D3A22A2
:1021A300E4FD7F1C7EC2122D3A7D807F14122D3AEE
:1021B300900000E014700302225914606814603424
:1021C30014600302228C900329E0FF900001E04F8A
:1021D300FD7F017EC2122D3A900329E0FF9000019A
:1021E300E04FFD7F56122D3A7D017F02122D3A7D7D
:1021F300A0022288900001E04430FF900329E04FC1
:10220300FD7F017EC2122D3A900001E04430FF9021
:102213000329E04FFD7F56122D3A7D017F02122DD7
:102223003A7D908060900001E04420FF900329E014
:102233004FFD7F017EC2122D3A900001E04420FF42
:10224300900329E04FFD7F56122D3A7D027F021243
:102253002D3A7D58802F900001E04410FF90032910
:10226300E04FFD7F017EC2122D3A900001E0441041
:10227300FF900329E04FFD7F56122D3A7D037F0225
:10228300122D3AE4FD0F122D3A7F147E00122D71A8
:0C229300900002E0FD7F007EC2022D3AA8
:102A7E00E4FD7F277EB8122D3A7DC07F007EB01216
:102A8E002D3AE4FD7F8C122D3A122D317D7F7F067B
:102A9E007E90122D3A7D387F3A7EB0122D3AE4FDAB
:102AAE007F017EC2122D3A7F56122D3A7DBE7F0ACD
:0E2ABE007E90122D3AE4FD7F057EC0022D3A77
:072B6600900327E0FFE4FDEE
:102B6D00AC05EF6008E4FD7F8C7EB080317D107F79
:102B7D008C7EB0122D3A7F467EA0122E39EF448006
:102B8D00FD7F46122D3AEC7F486008122E39EF4436
:102B9D000480087EA0122E39EF54FBFD7F48122DC4
:022BAD003A22CA
:102C6D0090032FE0FD7F0C7ED2122D3A900330E0C1
:102C7D00FD0F122D3A900331E0FD0F122D3A900306
:102C8D0032E0FD0F122D3A900333E0FD0F122D3A75
:092C9D00900334E0FD0F022D3A12
:102E53007D4F7F1F7EB0122D3A7D2E7F2E022D3A9D
:101CC10090032D7401F0122B66E4FD7F067EC01295
:101CD1002D3A122874122C6D122B19122ACC122DA6
:101CE1008F122A7E12268D122E537D017F347EA003
:101CF100122D3A7F2C7E01122D717D087F067EC048
:101D0100122D3A7FF47E01122D71E490032AF09096
:101D1100032AE07032122BAFEF602690032DE064AE
:101D210001700E12268D122B1990032A7401F08076
:101D3100161211CCEF6002800812245CEF6008805B
:101D41000090032A7404F090032AE0640470329036
:101D5100032DE07027122A7E7DFB7F077E90122DD6
:101D61003A122B667DFF7F077E90122D3A90032D4C
:101D71007401F0E4A3F0122E63122E53E490032AAF
:101D8100F090032AE064017056121F7BEF60091284
:101D910029DF122CDCEF70F1122CDCEF7041122DD7
:101DA1008F122A2F1216FA122384EF600612069858
:101DB100122A2F7F147E00122D71122CDCEF600885
:101DC10090032A7401F08006122E40EF70E5122C68
:101DD10030122D41E490032CF090032A7402F0900C
:101DE100032AE06402701B7FFAFE122D7112036E4A
:101DF100EF600FE490032DF090032BF090032A7411
:101E010003F090032AE064036003021D10122CA664
:101E110012260812229F120995121E50122B6612C9
:101E2100278E122711120F311229377FC87E001217
:101E31002D711221A3900327E0FF7D01122B6D125A
:0F1E41002804E490032AF090032E04F0021D10F1
:100D9200617000230000ACDA0230019000300020C4
:100DA200005005250500030A180101000159B40489
:100DB2006003200060004000A005250500030A181A
:100DC2000101000127E6028001E00030002000500E
:100DD20007B70780030A2A010100024FCC0500036E
:100DE200C00060004000A007B70780030A2A010183
:100DF20000011558025801B800300020005007B712
:100E02000780030A2A010100022AB004B00370001D
:100E120060004000A007B70780030A2A0101000012
:100E22009EC001C0014000500010002005E805C826
:100E320010040C010100013D800380028000A0002B
:100E420020004005E805C810040C0101000127E656
:100E520003C00320003000200050052305000306D4
:100E62001A010100024FCC078006400060004000DA
:100E7200A00523050003061A010100024A5E07FCD1
:100E82000780003C0018002804C804B00C040801C4
:100E92000100024A5E07FC0780003C00180028049B
:100EA200C804B00C040801010003AFE8079406006F
:100EB20000C8000400C8081C08000E020C01010052
:100EC2000419560AA00A00003000200050066E06DF
:100ED200400406240101000103C802A802580019B7
:100EE200000F0028065E06400A050F0101000207F6
:100EF20090055004B00032001E0050065E06400A03
:100F0200050F01016020000307840784088208821C
:100F1200112611261188118810131013101510159F
:0E0F2200097210161026102643000004076006
:10195800E49002AAF0A3F0A3F090031604F0E49038
:101968000327F090031D04F07F8A7EB0122E397B86
:1019780025EB20E203021B2B54F0C4540F9002AA5B
:10198800F0FA75F017A42423F582E5F03400F58306
:10199800E0FCA3E0FDA3E0FEA3E0FF9001931203A7
:1019A8003175F017EAA42427F582E5F03400F583B1
:1019B800E0FFA3E0900197CFF0A3EFF09002AAE038
:1019C800FF75F017A42429F582E5F03400F583E0CB
:1019D800FDA3E0900199CDF0A3EDF075F017EFA409
:1019E800242BF582E5F03400F583E0FFA3E09001B5
:1019F8009BCFF0A3EFF09002AAE0FF75F017A424A4
:101A08002DF582E5F03400F583E0FDA3E090019D1B
:101A1800CDF0A3EDF075F017EFA4242FF582E5F0D3
:101A28003400F583E0FFA3E090019FCFF0A3EFF02F
:101A38009002AAE0FF75F017A42431F582E5F0348E
:101A480000F583E0FDA3E09001A1CDF0A3EDF075D2
:101A5800F017EFA42433F582E5F03400F583E0FFB6
:101A6800A3E09001A3CFF0A3EFF09002AAE0FF75E6
:101A7800F017A42435F582E5F03400F583E09001F1
:101A8800A5F075F017EFA42436F582E5F03400F5DB
:101A980083E09001A6F09002AAE075F017A424371D
:101AA800F582E5F03400F583E09001A7F075F017B2
:101AB800EFA42438F582E5F03400F583E09001A81E
:101AC800F09002AAE075F017A42439F582E5F03405
:101AD80000F583E09001A9F0EF25E02403F582E406
:101AE8003400F583E0FCA3E0FD9002ABECF0A3ED3D
:101AF800F09002ABE09001B5F0ED9001B4F0EB90FE
:101B0800031830E1057402F080037401F0E49003D7
:101B180028F090031EF0900329F0EB30E003021C3C
:031B2800C180FE7B
:011B2B002297
:102DB300FFFF000000000000FFFF00000000000014
:0E2DC300FFFF000000000000FFFF0000000006
:102874007D997F627E90122D3A7DF07F317EA01289
:102884002D3A7D207F2E7EB0122D3AE4FD7F297EE5
:10289400B0122D3A7D487F307EB0122D3A7D057FEF
:1028A400327EB0122D3A7D557F217EB8122D3A7DAD
:1028B400407F3A7EB8122D3A7D117F837ED2122D4D
:1028C4003A7D417F087EB8122D3A7DF37F927EA037
:0328D400022D3A98
:102CDC00E47DFE7F037E90122D3A7F057E00122D3F
:102CEC00717DFF7F037E90122D3A7F0A7E00122D9C
:102CFC00717FB07EB8122E39EF544070037F0122E1
:022D0C007F0046
:012D0E0022A2
:102B19007DBF7F927EB0122D3AE4FD7F217EB012F7
:102B29002D3A7DC17F227EB0122D3A7D097F287E04
:102B3900B0122D3A7D2C7F257EB0122D3A7D7F7FF4
:102B49000F7E90122D3A7F0A7E00122D717DFF7F34
:0D2B59000F7E90122D3A7F0A7E00022D7132
:092E63007DC07F217EB0022D3AF2
:101F7B007D017F347EA0122D3A7F0A7E00122D71D7
:101F8B007FB17EB8122E39E4FCFDFE90031F1203C5
:101F9B00317FB27EB8122E39E4FCFDFEC004C005C1
:101FAB00C006C00790031FE0FCA3E0FDA3E0FEA367
:101FBB00E0FF780812031ED003D002D001D000EF4F
:101FCB002BFFEE3AFEED39FDEC38FC90031F1203AC
:101FDB00317FB37EB8122E39E4FCFDFEC004C00580
:101FEB00C006C00790031FE0FCA3E0FDA3E0FEA327
:101FFB00E0FF780812031ED003D002D001D000EF0F
:10200B002BFFEE3AFEED39FDEC38FC90031F12036B
:10201B0031E47F207E4EFDFC90031FE0F8A3E0F936
:10202B00A3E0FAA3E0FBC312030D40177F687EA762
:10203B007D047C0090031FE0F8A3A3A3E0D312035D
:10204B000D40037F00227F887E017D037C0090037F
:10205B001FE0F8A3E0F9A3E0FAA3E0FBC312030D22
:10206B0040047D4780227F007E777D017C009003BA
:10207B001FE0F8A3E0F9A3E0FAA3E0FBC312030D02
:10208B0050047D7780027D677F2A7EB0122D3A7DCA
:0B209B00427F2B7EB0122D3A7F012205
:1029DF007D7F7F0F7E90122D3A7F0A7E00122D7120
:1029EF007DFF7F0F7E90122D3A7F0A7E00122D7190
:1029FF007D147F147EB8122D3A7F017E00122D7147
:102A0F007D947F147EB8122D3A7F017E00122D71B6
:102A1F007DB47F147EB8122D3A7F0A7E00022D718D
:102C30007DFB7F107E90122D3A7DFB7F077E9012E8
:102C40002D3A7DDF7F087E90122D3A7F0A7E00129A
:102C50002D717DFF7F087E90122D3A7DFF7F077ECC
:0D2C600090122D3A7DFF7F107E90022D3ADC
:102D41007DFE7F0B7E90122D3A7F0A7E00122D713F
:102D51007D3F7F0A7E90122D3A7F0A7E00122D71EF
:092D61007DBF7F0A7E90022D3A2D
:102A2F00E4FD7F1F7EB0122D3AE4FD7F207EB012B1
:102A3F002D3A7DBF7F0F7E90122D3A7DFE7F0D7E4A
:102A4F0090122D3A7DEF7F037E90122D3A7F0A7EF2
:102A5F0000122D717DFF7F0D7E90122D3A7DFF7F2D
:0F2A6F000F7E90122D3A7DFF7F037E90022D3A4D
:1016FA0074FF9002ADF0A3F0A3F0A3F0A3F0A3F05F
:10170A0078B37C027D01FB7A2D79B37E007F0812C3
:10171A0000D378BB7C027D017BFF7A2D79BB7E00EA
:10172A007F081200D378C37C027D017BFF7A2D7972
:10173A00C37E007F081200D3E49002CBF0A3F0A38B
:10174A00F0A3F07FA07E867D01FC90031FE0F8A342
:10175A00E0F9A3E0FAA3E0FBC312030D4003021968
:10176A004E7D0F7F277EB8122D3AE49002CBF0907F
:10177A0002CBE0FFC39404748094804003021924CE
:10178A00EFC454F0FD7F297EB8122D3A9002CBE0C7
:10179A00C454F0FD7F2A7EB8122D3A9002CBE0C4E1
:1017AA0054F0FD7F2B7EB8122D3A7D077F207EC034
:1017BA00122D3A7D017F207EC0122D3A7F327E00A3
:1017CA00122D717F247EC0122E39EF547FFE9002B3
:1017DA00CBE025E024B3F582E43402F583EEF0A3EE
:1017EA00E4F07F257EC0122E399002CBE025E0245A
:1017FA00B3F582E43402F583E48FF01201DA7F262E
:10180A007EC0122E39EF547FFE9002CBE025E024F1
:10181A00BBF582E43402F583EEF0A3E4F07F277E81
:10182A00C0122E399002CBE025E024BBF582E434C5
:10183A0002F583E48FF01201DA7F287EC0122E3976
:10184A00EF547FFE9002CBE025E024C3F582E43416
:10185A0002F583EEF0A3E4F07F297EC0122E3990C0
:10186A0002CBE0FD25E024C3F582E43402F583E4EB
:10187A008FF01201DAED25E024B3F582E43402F5A3
:10188A0083E0FEA3E0FF9002ADE0FCA3E0FDD3EF0E
:10189A009DEE9C50129002CBE0FD9002ADEEF0A3BB
:1018AA00EFF09002CCEDF09002CBE025E024BBF5FE
:1018BA0082E43402F583E0FEA3E0FF9002AFE0FC8D
:1018CA00A3E0FDD3EF9DEE9C50129002CBE0FD9079
:1018DA0002AFEEF0A3EFF09002CDEDF09002CBE074
:1018EA0025E024C3F582E43402F583E0FEA3E0FF99
:1018FA009002B1E0FCA3E0FDD3EF9DEE9C50129064
:10190A0002CBE0FD9002B1EEF0A3EFF09002CEED33
:10191A00F09002CBE004F00217799002CCE0C454B4
:10192A00F0FD7F297EB8122D3A9002CDE0C454F022
:10193A00FD7F2A7EB8122D3A9002CEE0C454F0FD03
:0D194A007F2B8004E4FD7F277EB8122D3A2C
:01195700226D
:1023840078AD7C027D017BFF7A2D79CB7E007F06C0
:102394001200D37D077F207EC0122D3A7D017F205D
:1023A4007EC0122D3A7F647E00122D717F247EC080
:1023B400122E39EF547F7F00FEC006C0077F257EB2
:1023C400C0122E39EFFDD0E02DFED0E03400900293
:1023D400ADF0A3CEF07F267EC0122E39EF547F7F5E
:1023E40000FEC006C0077F277EC0122E39EFFDD045
:1023F400E02DFED0E034009002AFF0A3CEF07F28B1
:102404007EC0122E39EF547F7F00FEC006C0077FC6
:10241400297EC0122E39EFFDD0E02DFED0E034002D
:102424009002B1F0A3CEF0D39002AEE094009002FB
:10243400ADE09400501C9002B0E094009002AFE034
:102444009400500E9002B2E094009002B1E0940027
:0724540040037F01227F001D
:01245B00225E
:10250100021958E493A3F8E493A34003F68001F27F
:1025110008DFF48029E493A3F85407240CC8C333DB
:10252100C4540F4420C8834004F456800146F6DFAA
:10253100E4800B0102040810204080900C6CE47EC2
:10254100019360BCA3FF543F30E509541FFEE4939F
:10255100A360010ECF54C025E060A840B8E493A366
:10256100FAE493A3F8E493A3C8C582C8CAC583CA91
:10257100F0A3C8C582C8CAC583CADFE9DEE780BE49
:010F300000C0
:10000300E709F608DFFA8046E709F208DFFA803EDF
:1000130088828C83E709F0A3DFFA8032E309F608CC
:10002300DFFA8078E309F208DFFA807088828C8334
:10003300E309F0A3DFFA806489828A83E0A3F608E8
:10004300DFFA805889828A83E0A3F208DFFA804CC2
:1000530080D280FA80C680D4806980F28033801099
:1000630080A680EA809A80A880DA80E280CA803302
:1000730089828A83ECFAE493A3C8C582C8CCC5837A
:10008300CCF0A3C8C582C8CCC583CCDFE9DEE7804A
:100093000D89828A83E493A3F608DFF9ECFAA9F0C9
:1000A300EDFB2289828A83ECFAE0A3C8C582C8CC1F
:1000B300C583CCF0A3C8C582C8CCC583CCDFEADE38
:1000C300E880DB89828A83E493A3F208DFF980CC9A
:1000D30088F0EF60010E4E60C388F0ED2402B40493
:1000E3000050B9F582EB2402B4040050AF2323453A
:0600F3008223900053730C
:1000F900BB010689828A83E0225002E722BBFE0205
:09010900E32289828A83E4932237
:10011200BB010CE58229F582E5833AF583E02250A2
:1001220006E92582F8E622BBFE06E92582F8E222EC
:0D013200E58229F582E5833AF583E4932206
:10013F00BB010689828A83F0225002F722BBFE019F
:02014F00F32299
:10015100F8BB010DE58229F582E5833AF583E8F0E4
:10016100225006E92582C8F622BBFE05E92582C890
:02017100F22278
:10017300EF8DF0A4A8F0CF8CF0A428CE8DF0A42EA0
:02018300FE225A
:10018500BC000BBE0029EF8DF084FFADF022E4CC5E
:10019500F875F008EF2FFFEE33FEEC33FCEE9DEC27
:1001A500984005FCEE9DFE0FD5F0E9E4CEFD22ED6D
:1001B500F8F5F0EE8420D21CFEADF075F008EF2FB7
:1001C500FFED33FD4007985006D5F0F222C398FDA8
:0501D5000FD5F0EA2245
:1001DA00C5F0F8A3E028F0C5F0F8E58215827002B0
:0601EA001583E038F0224D
:1001F000E88FF0A4CC8BF0A42CFCE98EF0A42CFCAE
:100200008AF0EDA42CFCEA8EF0A4CDA8F08BF0A42B
:100210002DCC3825F0FDE98FF0A42CCD35F0FCEB8A
:100220008EF0A4FEA9F0EB8FF0A4CFC5F02ECD394F
:0F023000FEE43CFCEAA42DCE35F0FDE43CFC22BC
:10023F0075F008758200EF2FFFEE33FECD33CDCC76
:10024F0033CCC58233C5829BED9AEC99E5829840F9
:10025F000CF582EE9BFEED9AFDEC99FC0FD5F0D6D6
:10026F00E4CEFBE4CDFAE4CCF9A88222B800C1B900
:10027F000059BA002DEC8BF084CFCECDFCE5F0CB3E
:10028F00F97818EF2FFFEE33FEED33FDEC33FCEB77
:10029F0033FB10D703994004EB99FB0FD8E5E4F932
:1002AF00FA227818EF2FFFEE33FEED33FDEC33FC1F
:1002BF00C933C910D7059BE99A4007EC9BFCE99A13
:1002CF00F90FD8E0E4C9FAE4CCFB2275F010EF2F58
:1002DF00FFEE33FEED33FDCC33CCC833C810D70758
:1002EF009BEC9AE899400AED9BFDEC9AFCE899F893
:0E02FF000FD5F0DAE4CDFBE4CCFAE4C8F92226
:10030D00EB9FF5F0EA9E42F0E99D42F0E89C45F046
:01031D0022BD
:10031E00E8600FEFC333FFEE33FEED33FDEC33FC3D
:03032E00D8F122E1
:0C033100ECF0A3EDF0A3EEF0A3EFF0223F
:10033D00A8828583F0D083D0821203541203541205
:10034D000354120354E473E493A3C583C5F0C5832A
:10035D00C8C582C8F0A3C583C5F0C583C8C582C80A
:01036D00226D
:00000001FF
